{"abi":[{"type":"constructor","inputs":[{"name":"initialSigner","type":"address","internalType":"address"},{"name":"_daiToken","type":"address","internalType":"address"}],"stateMutability":"nonpayable"},{"type":"function","name":"applyIdentityBond","inputs":[{"name":"phoneHash","type":"bytes32","internalType":"bytes32"},{"name":"requestedBond","type":"uint256","internalType":"uint256"},{"name":"countryCode","type":"bytes32","internalType":"bytes32"},{"name":"signature","type":"bytes","internalType":"bytes"}],"outputs":[],"stateMutability":"nonpayable"},{"type":"function","name":"approveRecovery","inputs":[{"name":"identityHash","type":"bytes32","internalType":"bytes32"}],"outputs":[],"stateMutability":"nonpayable"},{"type":"function","name":"createIdentity","inputs":[{"name":"phoneHash","type":"bytes32","internalType":"bytes32"},{"name":"salt","type":"bytes32","internalType":"bytes32"},{"name":"username","type":"string","internalType":"string"},{"name":"isBiometricEnabled","type":"bool","internalType":"bool"}],"outputs":[{"name":"","type":"uint256","internalType":"uint256"}],"stateMutability":"nonpayable"},{"type":"function","name":"createRecoverySession","inputs":[{"name":"identityHash","type":"bytes32","internalType":"bytes32"},{"name":"newOwner","type":"address","internalType":"address"}],"outputs":[],"stateMutability":"nonpayable"},{"type":"function","name":"daiToken","inputs":[],"outputs":[{"name":"","type":"address","internalType":"contract IERC20"}],"stateMutability":"view"},{"type":"function","name":"deleteIdentity","inputs":[{"name":"phoneHash","type":"bytes32","internalType":"bytes32"}],"outputs":[],"stateMutability":"nonpayable"},{"type":"function","name":"executeRecovery","inputs":[{"name":"identityHash","type":"bytes32","internalType":"bytes32"}],"outputs":[],"stateMutability":"nonpayable"},{"type":"function","name":"getAllIdentities","inputs":[],"outputs":[{"name":"","type":"tuple[]","internalType":"struct IdentityContract.Identity[]","components":[{"name":"phoneHash","type":"bytes32","internalType":"bytes32"},{"name":"salt","type":"bytes32","internalType":"bytes32"},{"name":"username","type":"string","internalType":"string"},{"name":"owner","type":"address","internalType":"address"},{"name":"registeredAt","type":"uint64","internalType":"uint64"},{"name":"trustLevel","type":"uint32","internalType":"uint32"},{"name":"identityBond","type":"uint256","internalType":"uint256"},{"name":"isBiometricEnabled","type":"bool","internalType":"bool"},{"name":"isFlagged","type":"bool","internalType":"bool"},{"name":"isFrozen","type":"bool","internalType":"bool"},{"name":"isResolver","type":"bool","internalType":"bool"}]}],"stateMutability":"view"},{"type":"function","name":"getGuardianCount","inputs":[{"name":"identityHash","type":"bytes32","internalType":"bytes32"}],"outputs":[{"name":"","type":"uint256","internalType":"uint256"}],"stateMutability":"view"},{"type":"function","name":"getGuardianRegistration","inputs":[{"name":"identityHash","type":"bytes32","internalType":"bytes32"},{"name":"guardianAddress","type":"address","internalType":"address"}],"outputs":[{"name":"","type":"tuple","internalType":"struct IdentityContract.GuardianRegistration","components":[{"name":"guardianAddress","type":"address","internalType":"address"},{"name":"identityHash","type":"bytes32","internalType":"bytes32"},{"name":"registeredAt","type":"uint64","internalType":"uint64"},{"name":"status","type":"uint8","internalType":"enum IdentityContract.GuardianStatus"},{"name":"publicKeyHash","type":"bytes32","internalType":"bytes32"}]}],"stateMutability":"view"},{"type":"function","name":"getGuardians","inputs":[{"name":"identityHash","type":"bytes32","internalType":"bytes32"}],"outputs":[{"name":"","type":"tuple[]","internalType":"struct IdentityContract.GuardianRegistration[]","components":[{"name":"guardianAddress","type":"address","internalType":"address"},{"name":"identityHash","type":"bytes32","internalType":"bytes32"},{"name":"registeredAt","type":"uint64","internalType":"uint64"},{"name":"status","type":"uint8","internalType":"enum IdentityContract.GuardianStatus"},{"name":"publicKeyHash","type":"bytes32","internalType":"bytes32"}]}],"stateMutability":"view"},{"type":"function","name":"getIdentityByPhoneHash","inputs":[{"name":"phoneHash","type":"bytes32","internalType":"bytes32"}],"outputs":[{"name":"","type":"tuple","internalType":"struct IdentityContract.Identity","components":[{"name":"phoneHash","type":"bytes32","internalType":"bytes32"},{"name":"salt","type":"bytes32","internalType":"bytes32"},{"name":"username","type":"string","internalType":"string"},{"name":"owner","type":"address","internalType":"address"},{"name":"registeredAt","type":"uint64","internalType":"uint64"},{"name":"trustLevel","type":"uint32","internalType":"uint32"},{"name":"identityBond","type":"uint256","internalType":"uint256"},{"name":"isBiometricEnabled","type":"bool","internalType":"bool"},{"name":"isFlagged","type":"bool","internalType":"bool"},{"name":"isFrozen","type":"bool","internalType":"bool"},{"name":"isResolver","type":"bool","internalType":"bool"}]}],"stateMutability":"view"},{"type":"function","name":"getIdentityCount","inputs":[],"outputs":[{"name":"","type":"uint256","internalType":"uint256"}],"stateMutability":"view"},{"type":"function","name":"getIdentityMetadataHash","inputs":[{"name":"phoneHash","type":"bytes32","internalType":"bytes32"}],"outputs":[{"name":"","type":"bytes32","internalType":"bytes32"}],"stateMutability":"view"},{"type":"function","name":"getPhoneHash","inputs":[{"name":"addr","type":"address","internalType":"address"}],"outputs":[{"name":"","type":"bytes32","internalType":"bytes32"}],"stateMutability":"view"},{"type":"function","name":"getRecoverySession","inputs":[{"name":"identityHash","type":"bytes32","internalType":"bytes32"}],"outputs":[{"name":"","type":"tuple","internalType":"struct IdentityContract.RecoverySession","components":[{"name":"identityHash","type":"bytes32","internalType":"bytes32"},{"name":"newOwner","type":"address","internalType":"address"},{"name":"createdAt","type":"uint64","internalType":"uint64"},{"name":"approvals","type":"uint32","internalType":"uint32"},{"name":"executed","type":"bool","internalType":"bool"}]}],"stateMutability":"view"},{"type":"function","name":"identityExists","inputs":[{"name":"phoneHash","type":"bytes32","internalType":"bytes32"}],"outputs":[{"name":"","type":"bool","internalType":"bool"}],"stateMutability":"view"},{"type":"function","name":"isGuardianActive","inputs":[{"name":"identityHash","type":"bytes32","internalType":"bytes32"},{"name":"guardianAddress","type":"address","internalType":"address"}],"outputs":[{"name":"","type":"bool","internalType":"bool"}],"stateMutability":"view"},{"type":"function","name":"isIdentityOwner","inputs":[{"name":"identityHash","type":"bytes32","internalType":"bytes32"},{"name":"addr","type":"address","internalType":"address"}],"outputs":[{"name":"","type":"bool","internalType":"bool"}],"stateMutability":"view"},{"type":"function","name":"joinResolverPool","inputs":[{"name":"phoneHash","type":"bytes32","internalType":"bytes32"},{"name":"stakeAmount","type":"uint256","internalType":"uint256"}],"outputs":[],"stateMutability":"nonpayable"},{"type":"function","name":"owner","inputs":[],"outputs":[{"name":"","type":"address","internalType":"address"}],"stateMutability":"view"},{"type":"function","name":"registerGuardian","inputs":[{"name":"identityHash","type":"bytes32","internalType":"bytes32"},{"name":"guardianAddress","type":"address","internalType":"address"},{"name":"publicKeyHash","type":"bytes32","internalType":"bytes32"}],"outputs":[],"stateMutability":"nonpayable"},{"type":"function","name":"removeGuardian","inputs":[{"name":"identityHash","type":"bytes32","internalType":"bytes32"},{"name":"guardianAddress","type":"address","internalType":"address"}],"outputs":[],"stateMutability":"nonpayable"},{"type":"function","name":"reportFraud","inputs":[{"name":"phoneHash","type":"bytes32","internalType":"bytes32"},{"name":"reason","type":"string","internalType":"string"}],"outputs":[],"stateMutability":"nonpayable"},{"type":"function","name":"setIdentityFreeze","inputs":[{"name":"phoneHash","type":"bytes32","internalType":"bytes32"},{"name":"freeze","type":"bool","internalType":"bool"}],"outputs":[],"stateMutability":"nonpayable"},{"type":"function","name":"setSigner","inputs":[{"name":"newSigner","type":"address","internalType":"address"}],"outputs":[],"stateMutability":"nonpayable"},{"type":"function","name":"submitAppeal","inputs":[{"name":"phoneHash","type":"bytes32","internalType":"bytes32"},{"name":"reason","type":"string","internalType":"string"}],"outputs":[],"stateMutability":"nonpayable"},{"type":"function","name":"transferOwnership","inputs":[{"name":"newOwner","type":"address","internalType":"address"}],"outputs":[],"stateMutability":"nonpayable"},{"type":"function","name":"updateGuardianStatus","inputs":[{"name":"identityHash","type":"bytes32","internalType":"bytes32"},{"name":"guardianAddress","type":"address","internalType":"address"},{"name":"newStatus","type":"uint8","internalType":"enum IdentityContract.GuardianStatus"}],"outputs":[],"stateMutability":"nonpayable"},{"type":"function","name":"updateIdentity","inputs":[{"name":"phoneHash","type":"bytes32","internalType":"bytes32"},{"name":"newUsername","type":"string","internalType":"string"},{"name":"isBiometricEnabled","type":"bool","internalType":"bool"}],"outputs":[],"stateMutability":"nonpayable"},{"type":"function","name":"updateIdentityMetadataHash","inputs":[{"name":"phoneHash","type":"bytes32","internalType":"bytes32"},{"name":"metadataHash","type":"bytes32","internalType":"bytes32"}],"outputs":[],"stateMutability":"nonpayable"},{"type":"function","name":"updateTrustLevel","inputs":[{"name":"phoneHash","type":"bytes32","internalType":"bytes32"},{"name":"newLevel","type":"uint32","internalType":"uint32"}],"outputs":[],"stateMutability":"nonpayable"},{"type":"event","name":"AppealSubmitted","inputs":[{"name":"phoneHash","type":"bytes32","indexed":true,"internalType":"bytes32"},{"name":"reason","type":"string","indexed":false,"internalType":"string"},{"name":"timestamp","type":"uint256","indexed":false,"internalType":"uint256"}],"anonymous":false},{"type":"event","name":"FraudReported","inputs":[{"name":"identityId","type":"uint256","indexed":true,"internalType":"uint256"},{"name":"reason","type":"string","indexed":false,"internalType":"string"},{"name":"timestamp","type":"uint256","indexed":false,"internalType":"uint256"}],"anonymous":false},{"type":"event","name":"GuardianRegistered","inputs":[{"name":"identityHash","type":"bytes32","indexed":true,"internalType":"bytes32"},{"name":"guardianAddress","type":"address","indexed":true,"internalType":"address"},{"name":"timestamp","type":"uint256","indexed":false,"internalType":"uint256"}],"anonymous":false},{"type":"event","name":"GuardianRemoved","inputs":[{"name":"identityHash","type":"bytes32","indexed":true,"internalType":"bytes32"},{"name":"guardianAddress","type":"address","indexed":true,"internalType":"address"},{"name":"timestamp","type":"uint256","indexed":false,"internalType":"uint256"}],"anonymous":false},{"type":"event","name":"GuardianStatusUpdated","inputs":[{"name":"identityHash","type":"bytes32","indexed":true,"internalType":"bytes32"},{"name":"guardianAddress","type":"address","indexed":true,"internalType":"address"},{"name":"status","type":"uint8","indexed":false,"internalType":"enum IdentityContract.GuardianStatus"},{"name":"timestamp","type":"uint256","indexed":false,"internalType":"uint256"}],"anonymous":false},{"type":"event","name":"IdentityCreated","inputs":[{"name":"identityId","type":"uint256","indexed":true,"internalType":"uint256"},{"name":"phoneHash","type":"bytes32","indexed":false,"internalType":"bytes32"},{"name":"owner","type":"address","indexed":false,"internalType":"address"},{"name":"timestamp","type":"uint256","indexed":false,"internalType":"uint256"}],"anonymous":false},{"type":"event","name":"IdentityDeleted","inputs":[{"name":"identityId","type":"uint256","indexed":true,"internalType":"uint256"},{"name":"phoneHash","type":"bytes32","indexed":false,"internalType":"bytes32"},{"name":"timestamp","type":"uint256","indexed":false,"internalType":"uint256"}],"anonymous":false},{"type":"event","name":"IdentityFrozen","inputs":[{"name":"phoneHash","type":"bytes32","indexed":true,"internalType":"bytes32"},{"name":"frozen","type":"bool","indexed":false,"internalType":"bool"},{"name":"timestamp","type":"uint256","indexed":false,"internalType":"uint256"}],"anonymous":false},{"type":"event","name":"IdentityMetadataHashUpdated","inputs":[{"name":"phoneHash","type":"bytes32","indexed":true,"internalType":"bytes32"},{"name":"metadataHash","type":"bytes32","indexed":false,"internalType":"bytes32"},{"name":"timestamp","type":"uint256","indexed":false,"internalType":"uint256"}],"anonymous":false},{"type":"event","name":"IdentityUpdated","inputs":[{"name":"identityId","type":"uint256","indexed":true,"internalType":"uint256"},{"name":"phoneHash","type":"bytes32","indexed":false,"internalType":"bytes32"},{"name":"timestamp","type":"uint256","indexed":false,"internalType":"uint256"}],"anonymous":false},{"type":"event","name":"RecoveryApproved","inputs":[{"name":"identityHash","type":"bytes32","indexed":true,"internalType":"bytes32"},{"name":"guardian","type":"address","indexed":true,"internalType":"address"},{"name":"timestamp","type":"uint256","indexed":false,"internalType":"uint256"}],"anonymous":false},{"type":"event","name":"RecoveryExecuted","inputs":[{"name":"identityHash","type":"bytes32","indexed":true,"internalType":"bytes32"},{"name":"newOwner","type":"address","indexed":true,"internalType":"address"},{"name":"timestamp","type":"uint256","indexed":false,"internalType":"uint256"}],"anonymous":false},{"type":"event","name":"RecoveryInitiated","inputs":[{"name":"identityHash","type":"bytes32","indexed":true,"internalType":"bytes32"},{"name":"newOwner","type":"address","indexed":true,"internalType":"address"},{"name":"timestamp","type":"uint256","indexed":false,"internalType":"uint256"}],"anonymous":false},{"type":"event","name":"ReputationUpdated","inputs":[{"name":"identityId","type":"uint256","indexed":true,"internalType":"uint256"},{"name":"newScore","type":"uint256","indexed":false,"internalType":"uint256"},{"name":"timestamp","type":"uint256","indexed":false,"internalType":"uint256"}],"anonymous":false},{"type":"event","name":"TrustLevelUpdated","inputs":[{"name":"phoneHash","type":"bytes32","indexed":true,"internalType":"bytes32"},{"name":"newLevel","type":"uint32","indexed":false,"internalType":"uint32"},{"name":"timestamp","type":"uint256","indexed":false,"internalType":"uint256"}],"anonymous":false},{"type":"error","name":"AlreadyApproved","inputs":[]},{"type":"error","name":"AlreadyResolver","inputs":[]},{"type":"error","name":"BondTooLow","inputs":[]},{"type":"error","name":"ECDSAInvalidSignature","inputs":[]},{"type":"error","name":"ECDSAInvalidSignatureLength","inputs":[{"name":"length","type":"uint256","internalType":"uint256"}]},{"type":"error","name":"ECDSAInvalidSignatureS","inputs":[{"name":"s","type":"bytes32","internalType":"bytes32"}]},{"type":"error","name":"EmptyInput","inputs":[]},{"type":"error","name":"GuardianAlreadyRegistered","inputs":[]},{"type":"error","name":"GuardianNotFound","inputs":[]},{"type":"error","name":"IdentityAlreadyExists","inputs":[]},{"type":"error","name":"IdentityNotFound","inputs":[]},{"type":"error","name":"InsufficientApprovals","inputs":[]},{"type":"error","name":"InvalidCertificate","inputs":[]},{"type":"error","name":"InvalidGuardianAddress","inputs":[]},{"type":"error","name":"InvalidNewOwner","inputs":[]},{"type":"error","name":"InvalidOwner","inputs":[]},{"type":"error","name":"MaxGuardiansReached","inputs":[]},{"type":"error","name":"NoActiveRecoverySession","inputs":[]},{"type":"error","name":"NotAuthorized","inputs":[]},{"type":"error","name":"NotGuardian","inputs":[]},{"type":"error","name":"NotIdentityOwner","inputs":[]},{"type":"error","name":"NotOwner","inputs":[]},{"type":"error","name":"RecoveryAlreadyInProgress","inputs":[]},{"type":"error","name":"RecoveryCompleted","inputs":[]},{"type":"error","name":"RecoveryInProgress","inputs":[]},{"type":"error","name":"RecoveryNotFound","inputs":[]}],"bytecode":{"object":"0x608060405234801561000f575f5ffd5b5060405161597438038061597483398181016040528101906100319190610156565b3360015f6101000a81548173ffffffffffffffffffffffffffffffffffffffff021916908373ffffffffffffffffffffffffffffffffffffffff1602179055508160025f6101000a81548173ffffffffffffffffffffffffffffffffffffffff021916908373ffffffffffffffffffffffffffffffffffffffff1602179055508060035f6101000a81548173ffffffffffffffffffffffffffffffffffffffff021916908373ffffffffffffffffffffffffffffffffffffffff1602179055505050610194565b5f5ffd5b5f73ffffffffffffffffffffffffffffffffffffffff82169050919050565b5f610125826100fc565b9050919050565b6101358161011b565b811461013f575f5ffd5b50565b5f815190506101508161012c565b92915050565b5f5f6040838503121561016c5761016b6100f8565b5b5f61017985828601610142565b925050602061018a85828601610142565b9150509250929050565b6157d3806101a15f395ff3fe608060405234801561000f575f5ffd5b50600436106101ee575f3560e01c80637eeede351161010d578063bb2f7040116100a0578063ed9dbf421161006f578063ed9dbf42146105be578063f2586aad146105ee578063f2fde38b1461061e578063fe52225d1461063a576101ee565b8063bb2f704014610538578063be22f54614610568578063d8c04bb114610586578063e8b9fd7b146105a2576101ee565b8063a4a3a4a3116100dc578063a4a3a4a31461048c578063a90c42d4146104bc578063ac592c93146104ec578063ba6a3dd014610508576101ee565b80637eeede3514610404578063827197a4146104225780638da5cb5b1461045257806397debe5a14610470576101ee565b806350b17903116101855780636d0913aa116101545780636d0913aa14610380578063716ec5941461039c5780637947a9ae146103cc5780637abed905146103e8576101ee565b806350b17903146102fa578063652cec061461032a5780636776afb5146103485780636c19e78314610364576101ee565b80633cab947d116101c15780633cab947d1461028a57806348106b84146102a6578063484cc1d5146102c25780634b4d5ac5146102de576101ee565b80630194ad53146101f257806305050cd61461020e5780633390c35d1461023e57806336bf844b1461026e575b5f5ffd5b61020c600480360381019061020791906141cf565b610656565b005b61022860048036038101906102239190614261565b61086c565b60405161023591906142fd565b60405180910390f35b61025860048036038101906102539190614370565b610c96565b60405161026591906143bd565b60405180910390f35b61028860048036038101906102839190614455565b610cfe565b005b6102a4600480360381019061029f9190614370565b611077565b005b6102c060048036038101906102bb91906144d9565b611488565b005b6102dc60048036038101906102d7919061454a565b6115fe565b005b6102f860048036038101906102f39190614575565b61194d565b005b610314600480360381019061030f919061454a565b611a76565b6040516103219190614686565b60405180910390f35b610332611b71565b60405161033f91906142fd565b60405180910390f35b610362600480360381019061035d919061469f565b611b79565b005b61037e600480360381019061037991906146dd565b611cb8565b005b61039a60048036038101906103959190614708565b611de6565b005b6103b660048036038101906103b19190614370565b61208e565b6040516103c391906143bd565b60405180910390f35b6103e660048036038101906103e19190614770565b61214d565b005b61040260048036038101906103fd919061454a565b612293565b005b61040c6123de565b60405161041991906149d4565b60405180910390f35b61043c6004803603810190610437919061454a565b6126f7565b60405161044991906143bd565b60405180910390f35b61045a612714565b6040516104679190614a03565b60405180910390f35b61048a6004803603810190610485919061454a565b61273c565b005b6104a660048036038101906104a1919061454a565b612952565b6040516104b39190614b9d565b60405180910390f35b6104d660048036038101906104d19190614370565b612b6f565b6040516104e39190614c23565b60405180910390f35b61050660048036038101906105019190614c5f565b612d09565b005b610522600480360381019061051d919061454a565b612ed1565b60405161052f9190614d9b565b60405180910390f35b610552600480360381019061054d919061454a565b613111565b60405161055f9190614dca565b60405180910390f35b61057061317a565b60405161057d9190614e3e565b60405180910390f35b6105a0600480360381019061059b9190614e57565b61319f565b005b6105bc60048036038101906105b791906141cf565b6135b1565b005b6105d860048036038101906105d391906146dd565b613731565b6040516105e59190614dca565b60405180910390f35b6106086004803603810190610603919061454a565b613777565b60405161061591906142fd565b60405180910390f35b610638600480360381019061063391906146dd565b613791565b005b610654600480360381019061064f9190614370565b6138bf565b005b5f60055f8581526020019081526020015f205490505f81036106a4576040517fd3c1285600000000000000000000000000000000000000000000000000000000815260040160405180910390fd5b600160045f8381526020019081526020015f2060050160016101000a81548160ff021916908315150217905550603260045f8381526020019081526020015f20600301601c9054906101000a900463ffffffff1663ffffffff161061075a57603260045f8381526020019081526020015f20600301601c8282829054906101000a900463ffffffff166107379190614ed4565b92506101000a81548163ffffffff021916908363ffffffff16021790555061078e565b5f60045f8381526020019081526020015f20600301601c6101000a81548163ffffffff021916908363ffffffff1602179055505b601460045f8381526020019081526020015f20600301601c9054906101000a900463ffffffff1663ffffffff16101561082a57600160045f8381526020019081526020015f2060050160026101000a81548160ff021916908315150217905550837f90b3441f8454211487a1ccf581f83968ea2c00fc8b6234010402f4e45987fde8600142604051610821929190614f0b565b60405180910390a25b807f401ae4a14e74b73017e4391b2972bf0d06f1a3b329346bf469e826d9adb21f6284844260405161085e93929190614f7c565b60405180910390a250505050565b5f5f5f1b86036108a8576040517fa447fc5300000000000000000000000000000000000000000000000000000000815260040160405180910390fd5b5f5f1b85036108e3576040517fa447fc5300000000000000000000000000000000000000000000000000000000815260040160405180910390fd5b5f848490500361091f576040517fa447fc5300000000000000000000000000000000000000000000000000000000815260040160405180910390fd5b5f60055f8881526020019081526020015f205414610969576040517f6b41035600000000000000000000000000000000000000000000000000000000815260040160405180910390fd5b5f5f81548092919061097a90614fac565b91905055505f5f54905060405180610160016040528088815260200187815260200186868080601f0160208091040260200160405190810160405280939291908181526020018383808284375f81840152601f19601f8201169050808301925050505050505081526020013373ffffffffffffffffffffffffffffffffffffffff1681526020014267ffffffffffffffff168152602001606463ffffffff1681526020015f815260200184151581526020015f151581526020015f151581526020015f151581525060045f8381526020019081526020015f205f820151815f0155602082015181600101556040820151816002019081610a7a9190615214565b506060820151816003015f6101000a81548173ffffffffffffffffffffffffffffffffffffffff021916908373ffffffffffffffffffffffffffffffffffffffff16021790555060808201518160030160146101000a81548167ffffffffffffffff021916908367ffffffffffffffff16021790555060a082015181600301601c6101000a81548163ffffffff021916908363ffffffff16021790555060c0820151816004015560e0820151816005015f6101000a81548160ff0219169083151502179055506101008201518160050160016101000a81548160ff0219169083151502179055506101208201518160050160026101000a81548160ff0219169083151502179055506101408201518160050160036101000a81548160ff0219169083151502179055509050508060055f8981526020019081526020015f20819055508660065f3373ffffffffffffffffffffffffffffffffffffffff1673ffffffffffffffffffffffffffffffffffffffff1681526020019081526020015f20819055503360075f8981526020019081526020015f205f6101000a81548173ffffffffffffffffffffffffffffffffffffffff021916908373ffffffffffffffffffffffffffffffffffffffff160217905550807f9e28d0969ec04c9335f212e882857886dbc08803e273dbef7e27d799bf05e0c2883342604051610c81939291906152e3565b60405180910390a28091505095945050505050565b5f8173ffffffffffffffffffffffffffffffffffffffff1660075f8581526020019081526020015f205f9054906101000a900473ffffffffffffffffffffffffffffffffffffffff1673ffffffffffffffffffffffffffffffffffffffff1614905092915050565b5f60055f8781526020019081526020015f205490505f8103610d4c576040517fd3c1285600000000000000000000000000000000000000000000000000000000815260040160405180910390fd5b3373ffffffffffffffffffffffffffffffffffffffff1660045f8381526020019081526020015f206003015f9054906101000a900473ffffffffffffffffffffffffffffffffffffffff1673ffffffffffffffffffffffffffffffffffffffff1614610de4576040517f1b04606800000000000000000000000000000000000000000000000000000000815260040160405180910390fd5b5f610e18878787604051602001610dfd93929190615358565b60405160208183030381529060405280519060200120613b34565b905060025f9054906101000a900473ffffffffffffffffffffffffffffffffffffffff1673ffffffffffffffffffffffffffffffffffffffff16610e9f8286868080601f0160208091040260200160405190810160405280939291908181526020018383808284375f81840152601f19601f82011690508083019250505050505050613b67565b73ffffffffffffffffffffffffffffffffffffffff1614610eec576040517f1d39f94600000000000000000000000000000000000000000000000000000000815260040160405180910390fd5b5f861115610fbe5760035f9054906101000a900473ffffffffffffffffffffffffffffffffffffffff1673ffffffffffffffffffffffffffffffffffffffff166323b872dd3330896040518463ffffffff1660e01b8152600401610f5293929190615394565b6020604051808303815f875af1158015610f6e573d5f5f3e3d5ffd5b505050506040513d601f19601f82011682018060405250810190610f9291906153dd565b508560045f8481526020019081526020015f206004015f828254610fb69190615408565b925050819055505b601460045f8481526020019081526020015f20600301601c8282829054906101000a900463ffffffff16610ff2919061543b565b92506101000a81548163ffffffff021916908363ffffffff160217905550867f08ea2f2e67db78c6d1088cfb6c7e1c1161216bd5fd3c477c66701deab685d3de60045f8581526020019081526020015f20600301601c9054906101000a900463ffffffff1642604051611066929190615481565b60405180910390a250505050505050565b5f60095f8481526020019081526020015f205f8373ffffffffffffffffffffffffffffffffffffffff1673ffffffffffffffffffffffffffffffffffffffff1681526020019081526020015f2090505f816002015f9054906101000a900467ffffffffffffffff1667ffffffffffffffff1603611120576040517fdf170e8c00000000000000000000000000000000000000000000000000000000815260040160405180910390fd5b61112a8333613b91565b611160576040517f1b04606800000000000000000000000000000000000000000000000000000000815260040160405180910390fd5b60095f8481526020019081526020015f205f8373ffffffffffffffffffffffffffffffffffffffff1673ffffffffffffffffffffffffffffffffffffffff1681526020019081526020015f205f5f82015f6101000a81549073ffffffffffffffffffffffffffffffffffffffff0219169055600182015f9055600282015f6101000a81549067ffffffffffffffff02191690556002820160086101000a81549060ff0219169055600382015f905550505f600b5f8581526020019081526020015f2090505f600c5f8681526020019081526020015f205f8573ffffffffffffffffffffffffffffffffffffffff1673ffffffffffffffffffffffffffffffffffffffff1681526020019081526020015f205490505f6001838054905061128691906154a8565b9050808214611379575f8382815481106112a3576112a26154db565b5b905f5260205f20015f9054906101000a900473ffffffffffffffffffffffffffffffffffffffff169050808484815481106112e1576112e06154db565b5b905f5260205f20015f6101000a81548173ffffffffffffffffffffffffffffffffffffffff021916908373ffffffffffffffffffffffffffffffffffffffff16021790555082600c5f8981526020019081526020015f205f8373ffffffffffffffffffffffffffffffffffffffff1673ffffffffffffffffffffffffffffffffffffffff1681526020019081526020015f2081905550505b8280548061138a57611389615508565b5b600190038181905f5260205f20015f6101000a81549073ffffffffffffffffffffffffffffffffffffffff02191690559055600c5f8781526020019081526020015f205f8673ffffffffffffffffffffffffffffffffffffffff1673ffffffffffffffffffffffffffffffffffffffff1681526020019081526020015f205f9055600a5f8781526020019081526020015f205f81548092919061142c90615535565b91905055508473ffffffffffffffffffffffffffffffffffffffff16867fe953706243feba156334dc1940e65f3edbea071dd03deb4bbae7b85a2b9f5e5c4260405161147891906142fd565b60405180910390a3505050505050565b5f60055f8681526020019081526020015f205490505f81036114d6576040517fd3c1285600000000000000000000000000000000000000000000000000000000815260040160405180910390fd5b3373ffffffffffffffffffffffffffffffffffffffff1660045f8381526020019081526020015f206003015f9054906101000a900473ffffffffffffffffffffffffffffffffffffffff1673ffffffffffffffffffffffffffffffffffffffff161461156e576040517f1b04606800000000000000000000000000000000000000000000000000000000815260040160405180910390fd5b838360045f8481526020019081526020015f206002019182611591929190615566565b508160045f8381526020019081526020015f206005015f6101000a81548160ff021916908315150217905550807fb943011fc16d4eeabc70d24d831cccbb2b5c4ffc6cec1b0b5a2872da4bb5b67a86426040516115ef929190615633565b60405180910390a25050505050565b5f600d5f8381526020019081526020015f2090505f8160010160149054906101000a900467ffffffffffffffff1667ffffffffffffffff160361166d576040517f8b93451400000000000000000000000000000000000000000000000000000000815260040160405180910390fd5b806002015f9054906101000a900460ff16156116b5576040517f281b57cf00000000000000000000000000000000000000000000000000000000815260040160405180910390fd5b3073ffffffffffffffffffffffffffffffffffffffff1663716ec59483336040518363ffffffff1660e01b81526004016116f092919061565a565b602060405180830381865afa15801561170b573d5f5f3e3d5ffd5b505050506040513d601f19601f8201168201806040525081019061172f91906153dd565b611765576040517fef6d0f0200000000000000000000000000000000000000000000000000000000815260040160405180910390fd5b600e5f8381526020019081526020015f205f3373ffffffffffffffffffffffffffffffffffffffff1673ffffffffffffffffffffffffffffffffffffffff1681526020019081526020015f205f9054906101000a900460ff16156117f5576040517f101f817a00000000000000000000000000000000000000000000000000000000815260040160405180910390fd5b6001600e5f8481526020019081526020015f205f3373ffffffffffffffffffffffffffffffffffffffff1673ffffffffffffffffffffffffffffffffffffffff1681526020019081526020015f205f6101000a81548160ff02191690831515021790555080600101601c81819054906101000a900463ffffffff168092919061187d90615681565b91906101000a81548163ffffffff021916908363ffffffff160217905550503373ffffffffffffffffffffffffffffffffffffffff16827fe7cb299461661aa06646b0d3c1cdc901d7155af3d14beb5d03dfc788d815cfb1426040516118e391906142fd565b60405180910390a35f600a5f8481526020019081526020015f205490505f600160028361191091906156d9565b61191a9190615408565b90508083600101601c9054906101000a900463ffffffff1663ffffffff16106119475761194684613bf9565b5b50505050565b60015f9054906101000a900473ffffffffffffffffffffffffffffffffffffffff1673ffffffffffffffffffffffffffffffffffffffff163373ffffffffffffffffffffffffffffffffffffffff16146119d3576040517f30cd747100000000000000000000000000000000000000000000000000000000815260040160405180910390fd5b5f60055f8481526020019081526020015f205490505f8103611a21576040517fd3c1285600000000000000000000000000000000000000000000000000000000815260040160405180910390fd5b8160085f8581526020019081526020015f2081905550827f400f73718040ee6e64860b1854ee1296887854886fbe8e22f902e4d6244b43308342604051611a69929190615633565b60405180910390a2505050565b611a7e613faf565b600d5f8381526020019081526020015f206040518060a00160405290815f8201548152602001600182015f9054906101000a900473ffffffffffffffffffffffffffffffffffffffff1673ffffffffffffffffffffffffffffffffffffffff1673ffffffffffffffffffffffffffffffffffffffff1681526020016001820160149054906101000a900467ffffffffffffffff1667ffffffffffffffff1667ffffffffffffffff16815260200160018201601c9054906101000a900463ffffffff1663ffffffff1663ffffffff168152602001600282015f9054906101000a900460ff1615151515815250509050919050565b5f5f54905090565b60015f9054906101000a900473ffffffffffffffffffffffffffffffffffffffff1673ffffffffffffffffffffffffffffffffffffffff163373ffffffffffffffffffffffffffffffffffffffff1614611bff576040517f30cd747100000000000000000000000000000000000000000000000000000000815260040160405180910390fd5b5f60055f8481526020019081526020015f205490505f8103611c4d576040517fd3c1285600000000000000000000000000000000000000000000000000000000815260040160405180910390fd5b8160045f8381526020019081526020015f2060050160026101000a81548160ff021916908315150217905550827f90b3441f8454211487a1ccf581f83968ea2c00fc8b6234010402f4e45987fde88342604051611cab929190614f0b565b60405180910390a2505050565b60015f9054906101000a900473ffffffffffffffffffffffffffffffffffffffff1673ffffffffffffffffffffffffffffffffffffffff163373ffffffffffffffffffffffffffffffffffffffff1614611d3e576040517f30cd747100000000000000000000000000000000000000000000000000000000815260040160405180910390fd5b5f73ffffffffffffffffffffffffffffffffffffffff168173ffffffffffffffffffffffffffffffffffffffff1603611da3576040517f49e27cff00000000000000000000000000000000000000000000000000000000815260040160405180910390fd5b8060025f6101000a81548173ffffffffffffffffffffffffffffffffffffffff021916908373ffffffffffffffffffffffffffffffffffffffff16021790555050565b5f60055f8481526020019081526020015f205490505f8103611e34576040517fd3c1285600000000000000000000000000000000000000000000000000000000815260040160405180910390fd5b3373ffffffffffffffffffffffffffffffffffffffff1660045f8381526020019081526020015f206003015f9054906101000a900473ffffffffffffffffffffffffffffffffffffffff1673ffffffffffffffffffffffffffffffffffffffff1614611ecc576040517f1b04606800000000000000000000000000000000000000000000000000000000815260040160405180910390fd5b60045f8281526020019081526020015f2060050160039054906101000a900460ff1615611f25576040517fc7f8e2fe00000000000000000000000000000000000000000000000000000000815260040160405180910390fd5b609660045f8381526020019081526020015f20600301601c9054906101000a900463ffffffff1663ffffffff161015611f8a576040517fea8e4eb500000000000000000000000000000000000000000000000000000000815260040160405180910390fd5b5f82111561205c5760035f9054906101000a900473ffffffffffffffffffffffffffffffffffffffff1673ffffffffffffffffffffffffffffffffffffffff166323b872dd3330856040518463ffffffff1660e01b8152600401611ff093929190615394565b6020604051808303815f875af115801561200c573d5f5f3e3d5ffd5b505050506040513d601f19601f8201168201806040525081019061203091906153dd565b508160045f8381526020019081526020015f206004015f8282546120549190615408565b925050819055505b600160045f8381526020019081526020015f2060050160036101000a81548160ff021916908315150217905550505050565b5f5f60095f8581526020019081526020015f205f8473ffffffffffffffffffffffffffffffffffffffff1673ffffffffffffffffffffffffffffffffffffffff1681526020019081526020015f2090505f816002015f9054906101000a900467ffffffffffffffff1667ffffffffffffffff161415801561214457506001600381111561211e5761211d614a45565b5b8160020160089054906101000a900460ff16600381111561214257612141614a45565b5b145b91505092915050565b60015f9054906101000a900473ffffffffffffffffffffffffffffffffffffffff1673ffffffffffffffffffffffffffffffffffffffff163373ffffffffffffffffffffffffffffffffffffffff16146121d3576040517f30cd747100000000000000000000000000000000000000000000000000000000815260040160405180910390fd5b5f60055f8481526020019081526020015f205490505f8103612221576040517fd3c1285600000000000000000000000000000000000000000000000000000000815260040160405180910390fd5b8160045f8381526020019081526020015f20600301601c6101000a81548163ffffffff021916908363ffffffff160217905550827f08ea2f2e67db78c6d1088cfb6c7e1c1161216bd5fd3c477c66701deab685d3de8342604051612286929190615481565b60405180910390a2505050565b5f600d5f8381526020019081526020015f2090505f8160010160149054906101000a900467ffffffffffffffff1667ffffffffffffffff1603612302576040517f8b93451400000000000000000000000000000000000000000000000000000000815260040160405180910390fd5b806002015f9054906101000a900460ff161561234a576040517f281b57cf00000000000000000000000000000000000000000000000000000000815260040160405180910390fd5b5f600a5f8481526020019081526020015f205490505f600160028361236f91906156d9565b6123799190615408565b90508083600101601c9054906101000a900463ffffffff1663ffffffff1610156123cf576040517f8af69cf100000000000000000000000000000000000000000000000000000000815260040160405180910390fd5b6123d884613bf9565b50505050565b60603373ffffffffffffffffffffffffffffffffffffffff1660015f9054906101000a900473ffffffffffffffffffffffffffffffffffffffff1673ffffffffffffffffffffffffffffffffffffffff1614612466576040517f30cd747100000000000000000000000000000000000000000000000000000000815260040160405180910390fd5b5f5f5490505f8167ffffffffffffffff81111561248657612485614ff3565b5b6040519080825280602002602001820160405280156124bf57816020015b6124ac614001565b8152602001906001900390816124a45790505b5090505f600190505b8281116126ee5760045f8281526020019081526020015f20604051806101600160405290815f82015481526020016001820154815260200160028201805461250f9061504d565b80601f016020809104026020016040519081016040528092919081815260200182805461253b9061504d565b80156125865780601f1061255d57610100808354040283529160200191612586565b820191905f5260205f20905b81548152906001019060200180831161256957829003601f168201915b50505050508152602001600382015f9054906101000a900473ffffffffffffffffffffffffffffffffffffffff1673ffffffffffffffffffffffffffffffffffffffff1673ffffffffffffffffffffffffffffffffffffffff1681526020016003820160149054906101000a900467ffffffffffffffff1667ffffffffffffffff1667ffffffffffffffff16815260200160038201601c9054906101000a900463ffffffff1663ffffffff1663ffffffff16815260200160048201548152602001600582015f9054906101000a900460ff161515151581526020016005820160019054906101000a900460ff161515151581526020016005820160029054906101000a900460ff161515151581526020016005820160039054906101000a900460ff161515151581525050826001836126bf91906154a8565b815181106126d0576126cf6154db565b5b602002602001018190525080806126e690614fac565b9150506124c8565b50809250505090565b5f5f60055f8481526020019081526020015f205414159050919050565b5f60015f9054906101000a900473ffffffffffffffffffffffffffffffffffffffff16905090565b5f60055f8381526020019081526020015f205490505f810361278a576040517fd3c1285600000000000000000000000000000000000000000000000000000000815260040160405180910390fd5b3373ffffffffffffffffffffffffffffffffffffffff1660045f8381526020019081526020015f206003015f9054906101000a900473ffffffffffffffffffffffffffffffffffffffff1673ffffffffffffffffffffffffffffffffffffffff1614612822576040517f1b04606800000000000000000000000000000000000000000000000000000000815260040160405180910390fd5b60045f8281526020019081526020015f205f5f82015f9055600182015f9055600282015f612850919061407f565b600382015f6101000a81549073ffffffffffffffffffffffffffffffffffffffff02191690556003820160146101000a81549067ffffffffffffffff021916905560038201601c6101000a81549063ffffffff0219169055600482015f9055600582015f6101000a81549060ff02191690556005820160016101000a81549060ff02191690556005820160026101000a81549060ff02191690556005820160036101000a81549060ff0219169055505060055f8381526020019081526020015f205f9055807f3f95078a88a1064f15c0ec1cfe47de5f35617fd5e2a7fada734e6a5d80e2118e8342604051612946929190615633565b60405180910390a25050565b60605f600b5f8481526020019081526020015f2090505f818054905067ffffffffffffffff81111561298757612986614ff3565b5b6040519080825280602002602001820160405280156129c057816020015b6129ad6140bc565b8152602001906001900390816129a55790505b5090505f5f90505b8280549050811015612b645760095f8681526020019081526020015f205f8483815481106129f9576129f86154db565b5b905f5260205f20015f9054906101000a900473ffffffffffffffffffffffffffffffffffffffff1673ffffffffffffffffffffffffffffffffffffffff1673ffffffffffffffffffffffffffffffffffffffff1681526020019081526020015f206040518060a00160405290815f82015f9054906101000a900473ffffffffffffffffffffffffffffffffffffffff1673ffffffffffffffffffffffffffffffffffffffff1673ffffffffffffffffffffffffffffffffffffffff16815260200160018201548152602001600282015f9054906101000a900467ffffffffffffffff1667ffffffffffffffff1667ffffffffffffffff1681526020016002820160089054906101000a900460ff166003811115612b1957612b18614a45565b5b6003811115612b2b57612b2a614a45565b5b8152602001600382015481525050828281518110612b4c57612b4b6154db565b5b602002602001018190525080806001019150506129c8565b508092505050919050565b612b776140bc565b5f60095f8581526020019081526020015f205f8473ffffffffffffffffffffffffffffffffffffffff1673ffffffffffffffffffffffffffffffffffffffff1681526020019081526020015f2090505f816002015f9054906101000a900467ffffffffffffffff1667ffffffffffffffff1603612c20576040517fdf170e8c00000000000000000000000000000000000000000000000000000000815260040160405180910390fd5b806040518060a00160405290815f82015f9054906101000a900473ffffffffffffffffffffffffffffffffffffffff1673ffffffffffffffffffffffffffffffffffffffff1673ffffffffffffffffffffffffffffffffffffffff16815260200160018201548152602001600282015f9054906101000a900467ffffffffffffffff1667ffffffffffffffff1667ffffffffffffffff1681526020016002820160089054906101000a900460ff166003811115612ce057612cdf614a45565b5b6003811115612cf257612cf1614a45565b5b815260200160038201548152505091505092915050565b5f60095f8581526020019081526020015f205f8473ffffffffffffffffffffffffffffffffffffffff1673ffffffffffffffffffffffffffffffffffffffff1681526020019081526020015f2090505f816002015f9054906101000a900467ffffffffffffffff1667ffffffffffffffff1603612db2576040517fdf170e8c00000000000000000000000000000000000000000000000000000000815260040160405180910390fd5b805f015f9054906101000a900473ffffffffffffffffffffffffffffffffffffffff1673ffffffffffffffffffffffffffffffffffffffff163373ffffffffffffffffffffffffffffffffffffffff1614158015612e175750612e158433613b91565b155b15612e4e576040517fea8e4eb500000000000000000000000000000000000000000000000000000000815260040160405180910390fd5b818160020160086101000a81548160ff02191690836003811115612e7557612e74614a45565b5b02179055508273ffffffffffffffffffffffffffffffffffffffff16847f1cbf64b27d9b816c7139781e8211a79234a7e7a84a885d50a63a00a838954a898442604051612ec3929190615718565b60405180910390a350505050565b612ed9614001565b5f60055f8481526020019081526020015f205490505f8103612f27576040517fd3c1285600000000000000000000000000000000000000000000000000000000815260040160405180910390fd5b60045f8281526020019081526020015f20604051806101600160405290815f820154815260200160018201548152602001600282018054612f679061504d565b80601f0160208091040260200160405190810160405280929190818152602001828054612f939061504d565b8015612fde5780601f10612fb557610100808354040283529160200191612fde565b820191905f5260205f20905b815481529060010190602001808311612fc157829003601f168201915b50505050508152602001600382015f9054906101000a900473ffffffffffffffffffffffffffffffffffffffff1673ffffffffffffffffffffffffffffffffffffffff1673ffffffffffffffffffffffffffffffffffffffff1681526020016003820160149054906101000a900467ffffffffffffffff1667ffffffffffffffff1667ffffffffffffffff16815260200160038201601c9054906101000a900463ffffffff1663ffffffff1663ffffffff16815260200160048201548152602001600582015f9054906101000a900460ff161515151581526020016005820160019054906101000a900460ff161515151581526020016005820160029054906101000a900460ff161515151581526020016005820160039054906101000a900460ff161515151581525050915050919050565b5f5f60055f8481526020019081526020015f205490505f8103613160576040517fd3c1285600000000000000000000000000000000000000000000000000000000815260040160405180910390fd5b60085f8481526020019081526020015f2054915050919050565b60035f9054906101000a900473ffffffffffffffffffffffffffffffffffffffff1681565b6005600a5f8581526020019081526020015f2054106131ea576040517fdfc3481a00000000000000000000000000000000000000000000000000000000815260040160405180910390fd5b5f73ffffffffffffffffffffffffffffffffffffffff168273ffffffffffffffffffffffffffffffffffffffff160361324f576040517f1b08105400000000000000000000000000000000000000000000000000000000815260040160405180910390fd5b5f60095f8581526020019081526020015f205f8473ffffffffffffffffffffffffffffffffffffffff1673ffffffffffffffffffffffffffffffffffffffff1681526020019081526020015f2090505f816002015f9054906101000a900467ffffffffffffffff1667ffffffffffffffff16146132f8576040517f5fa236e900000000000000000000000000000000000000000000000000000000815260040160405180910390fd5b6040518060a001604052808473ffffffffffffffffffffffffffffffffffffffff1681526020018581526020014267ffffffffffffffff1681526020015f600381111561334857613347614a45565b5b81526020018381525060095f8681526020019081526020015f205f8573ffffffffffffffffffffffffffffffffffffffff1673ffffffffffffffffffffffffffffffffffffffff1681526020019081526020015f205f820151815f015f6101000a81548173ffffffffffffffffffffffffffffffffffffffff021916908373ffffffffffffffffffffffffffffffffffffffff160217905550602082015181600101556040820151816002015f6101000a81548167ffffffffffffffff021916908367ffffffffffffffff16021790555060608201518160020160086101000a81548160ff0219169083600381111561344457613443614a45565b5b021790555060808201518160030155905050600b5f8581526020019081526020015f2083908060018154018082558091505060019003905f5260205f20015f9091909190916101000a81548173ffffffffffffffffffffffffffffffffffffffff021916908373ffffffffffffffffffffffffffffffffffffffff1602179055506001600b5f8681526020019081526020015f20805490506134e691906154a8565b600c5f8681526020019081526020015f205f8573ffffffffffffffffffffffffffffffffffffffff1673ffffffffffffffffffffffffffffffffffffffff1681526020019081526020015f2081905550600a5f8581526020019081526020015f205f81548092919061355790614fac565b91905055508273ffffffffffffffffffffffffffffffffffffffff16847f6813ad352545019331fc6a76ae4eb869742f9c2e4d9b9b9e6b3a4dc3b833e6f1426040516135a391906142fd565b60405180910390a350505050565b5f60055f8581526020019081526020015f205490505f81036135ff576040517fd3c1285600000000000000000000000000000000000000000000000000000000815260040160405180910390fd5b3373ffffffffffffffffffffffffffffffffffffffff1660045f8381526020019081526020015f206003015f9054906101000a900473ffffffffffffffffffffffffffffffffffffffff1673ffffffffffffffffffffffffffffffffffffffff1614613697576040517f1b04606800000000000000000000000000000000000000000000000000000000815260040160405180910390fd5b60045f8281526020019081526020015f2060050160029054906101000a900460ff166136ef576040517fea8e4eb500000000000000000000000000000000000000000000000000000000815260040160405180910390fd5b837f0888e3f91ca06059260ba91e7a97a885e88aca38253ffc3f87f30e5c17c9cd1184844260405161372393929190614f7c565b60405180910390a250505050565b5f60065f8373ffffffffffffffffffffffffffffffffffffffff1673ffffffffffffffffffffffffffffffffffffffff1681526020019081526020015f20549050919050565b5f600a5f8381526020019081526020015f20549050919050565b60015f9054906101000a900473ffffffffffffffffffffffffffffffffffffffff1673ffffffffffffffffffffffffffffffffffffffff163373ffffffffffffffffffffffffffffffffffffffff1614613817576040517f30cd747100000000000000000000000000000000000000000000000000000000815260040160405180910390fd5b5f73ffffffffffffffffffffffffffffffffffffffff168173ffffffffffffffffffffffffffffffffffffffff160361387c576040517f49e27cff00000000000000000000000000000000000000000000000000000000815260040160405180910390fd5b8060015f6101000a81548173ffffffffffffffffffffffffffffffffffffffff021916908373ffffffffffffffffffffffffffffffffffffffff16021790555050565b5f73ffffffffffffffffffffffffffffffffffffffff168173ffffffffffffffffffffffffffffffffffffffff1603613924576040517f54a5678600000000000000000000000000000000000000000000000000000000815260040160405180910390fd5b5f600d5f8481526020019081526020015f2060010160149054906101000a900467ffffffffffffffff1667ffffffffffffffff16141580156139845750600d5f8381526020019081526020015f206002015f9054906101000a900460ff16155b156139bb576040517f8c01590100000000000000000000000000000000000000000000000000000000815260040160405180910390fd5b6040518060a001604052808381526020018273ffffffffffffffffffffffffffffffffffffffff1681526020014267ffffffffffffffff1681526020015f63ffffffff1681526020015f1515815250600d5f8481526020019081526020015f205f820151815f01556020820151816001015f6101000a81548173ffffffffffffffffffffffffffffffffffffffff021916908373ffffffffffffffffffffffffffffffffffffffff16021790555060408201518160010160146101000a81548167ffffffffffffffff021916908367ffffffffffffffff160217905550606082015181600101601c6101000a81548163ffffffff021916908363ffffffff1602179055506080820151816002015f6101000a81548160ff0219169083151502179055509050508073ffffffffffffffffffffffffffffffffffffffff16827f627a842a708187afa49b512a951bf09cd01cb1179d8d82e49a2a9d8a58cbfffb42604051613b2891906142fd565b60405180910390a35050565b5f7f19457468657265756d205369676e6564204d6573736167653a0a3332000000005f5281601c52603c5f209050919050565b5f5f5f5f613b758686613d11565b925092509250613b858282613d66565b82935050505092915050565b5f8173ffffffffffffffffffffffffffffffffffffffff1660075f8581526020019081526020015f205f9054906101000a900473ffffffffffffffffffffffffffffffffffffffff1673ffffffffffffffffffffffffffffffffffffffff1614905092915050565b5f600d5f8381526020019081526020015f2090506001816002015f6101000a81548160ff021916908315150217905550806001015f9054906101000a900473ffffffffffffffffffffffffffffffffffffffff1660075f8481526020019081526020015f205f6101000a81548173ffffffffffffffffffffffffffffffffffffffff021916908373ffffffffffffffffffffffffffffffffffffffff160217905550806001015f9054906101000a900473ffffffffffffffffffffffffffffffffffffffff1673ffffffffffffffffffffffffffffffffffffffff16827f5d1f29cc2ccda049ac0357316a0d2f79a70e489f700164ca4e8cd815596ce62442604051613d0591906142fd565b60405180910390a35050565b5f5f5f6041845103613d51575f5f5f602087015192506040870151915060608701515f1a9050613d4388828585613ec8565b955095509550505050613d5f565b5f600285515f1b9250925092505b9250925092565b5f6003811115613d7957613d78614a45565b5b826003811115613d8c57613d8b614a45565b5b0315613ec45760016003811115613da657613da5614a45565b5b826003811115613db957613db8614a45565b5b03613df0576040517ff645eedf00000000000000000000000000000000000000000000000000000000815260040160405180910390fd5b60026003811115613e0457613e03614a45565b5b826003811115613e1757613e16614a45565b5b03613e5b57805f1c6040517ffce698f7000000000000000000000000000000000000000000000000000000008152600401613e5291906142fd565b60405180910390fd5b600380811115613e6e57613e6d614a45565b5b826003811115613e8157613e80614a45565b5b03613ec357806040517fd78bce0c000000000000000000000000000000000000000000000000000000008152600401613eba9190614dca565b60405180910390fd5b5b5050565b5f5f5f7f7fffffffffffffffffffffffffffffff5d576e7357a4501ddfe92f46681b20a0845f1c1115613f04575f600385925092509250613fa5565b5f6001888888886040515f8152602001604052604051613f27949392919061575a565b6020604051602081039080840390855afa158015613f47573d5f5f3e3d5ffd5b5050506020604051035190505f73ffffffffffffffffffffffffffffffffffffffff168173ffffffffffffffffffffffffffffffffffffffff1603613f98575f60015f5f1b93509350935050613fa5565b805f5f5f1b935093509350505b9450945094915050565b6040518060a001604052805f81526020015f73ffffffffffffffffffffffffffffffffffffffff1681526020015f67ffffffffffffffff1681526020015f63ffffffff1681526020015f151581525090565b6040518061016001604052805f81526020015f8152602001606081526020015f73ffffffffffffffffffffffffffffffffffffffff1681526020015f67ffffffffffffffff1681526020015f63ffffffff1681526020015f81526020015f151581526020015f151581526020015f151581526020015f151581525090565b50805461408b9061504d565b5f825580601f1061409c57506140b9565b601f0160209004905f5260205f20908101906140b89190614118565b5b50565b6040518060a001604052805f73ffffffffffffffffffffffffffffffffffffffff1681526020015f81526020015f67ffffffffffffffff1681526020015f600381111561410c5761410b614a45565b5b81526020015f81525090565b5b8082111561412f575f815f905550600101614119565b5090565b5f5ffd5b5f5ffd5b5f819050919050565b61414d8161413b565b8114614157575f5ffd5b50565b5f8135905061416881614144565b92915050565b5f5ffd5b5f5ffd5b5f5ffd5b5f5f83601f84011261418f5761418e61416e565b5b8235905067ffffffffffffffff8111156141ac576141ab614172565b5b6020830191508360018202830111156141c8576141c7614176565b5b9250929050565b5f5f5f604084860312156141e6576141e5614133565b5b5f6141f38682870161415a565b935050602084013567ffffffffffffffff81111561421457614213614137565b5b6142208682870161417a565b92509250509250925092565b5f8115159050919050565b6142408161422c565b811461424a575f5ffd5b50565b5f8135905061425b81614237565b92915050565b5f5f5f5f5f6080868803121561427a57614279614133565b5b5f6142878882890161415a565b95505060206142988882890161415a565b945050604086013567ffffffffffffffff8111156142b9576142b8614137565b5b6142c58882890161417a565b935093505060606142d88882890161424d565b9150509295509295909350565b5f819050919050565b6142f7816142e5565b82525050565b5f6020820190506143105f8301846142ee565b92915050565b5f73ffffffffffffffffffffffffffffffffffffffff82169050919050565b5f61433f82614316565b9050919050565b61434f81614335565b8114614359575f5ffd5b50565b5f8135905061436a81614346565b92915050565b5f5f6040838503121561438657614385614133565b5b5f6143938582860161415a565b92505060206143a48582860161435c565b9150509250929050565b6143b78161422c565b82525050565b5f6020820190506143d05f8301846143ae565b92915050565b6143df816142e5565b81146143e9575f5ffd5b50565b5f813590506143fa816143d6565b92915050565b5f5f83601f8401126144155761441461416e565b5b8235905067ffffffffffffffff81111561443257614431614172565b5b60208301915083600182028301111561444e5761444d614176565b5b9250929050565b5f5f5f5f5f6080868803121561446e5761446d614133565b5b5f61447b8882890161415a565b955050602061448c888289016143ec565b945050604061449d8882890161415a565b935050606086013567ffffffffffffffff8111156144be576144bd614137565b5b6144ca88828901614400565b92509250509295509295909350565b5f5f5f5f606085870312156144f1576144f0614133565b5b5f6144fe8782880161415a565b945050602085013567ffffffffffffffff81111561451f5761451e614137565b5b61452b8782880161417a565b9350935050604061453e8782880161424d565b91505092959194509250565b5f6020828403121561455f5761455e614133565b5b5f61456c8482850161415a565b91505092915050565b5f5f6040838503121561458b5761458a614133565b5b5f6145988582860161415a565b92505060206145a98582860161415a565b9150509250929050565b6145bc8161413b565b82525050565b6145cb81614335565b82525050565b5f67ffffffffffffffff82169050919050565b6145ed816145d1565b82525050565b5f63ffffffff82169050919050565b61460b816145f3565b82525050565b61461a8161422c565b82525050565b60a082015f8201516146345f8501826145b3565b50602082015161464760208501826145c2565b50604082015161465a60408501826145e4565b50606082015161466d6060850182614602565b5060808201516146806080850182614611565b50505050565b5f60a0820190506146995f830184614620565b92915050565b5f5f604083850312156146b5576146b4614133565b5b5f6146c28582860161415a565b92505060206146d38582860161424d565b9150509250929050565b5f602082840312156146f2576146f1614133565b5b5f6146ff8482850161435c565b91505092915050565b5f5f6040838503121561471e5761471d614133565b5b5f61472b8582860161415a565b925050602061473c858286016143ec565b9150509250929050565b61474f816145f3565b8114614759575f5ffd5b50565b5f8135905061476a81614746565b92915050565b5f5f6040838503121561478657614785614133565b5b5f6147938582860161415a565b92505060206147a48582860161475c565b9150509250929050565b5f81519050919050565b5f82825260208201905092915050565b5f819050602082019050919050565b5f81519050919050565b5f82825260208201905092915050565b8281835e5f83830152505050565b5f601f19601f8301169050919050565b5f614819826147d7565b61482381856147e1565b93506148338185602086016147f1565b61483c816147ff565b840191505092915050565b614850816142e5565b82525050565b5f61016083015f83015161486c5f8601826145b3565b50602083015161487f60208601826145b3565b5060408301518482036040860152614897828261480f565b91505060608301516148ac60608601826145c2565b5060808301516148bf60808601826145e4565b5060a08301516148d260a0860182614602565b5060c08301516148e560c0860182614847565b5060e08301516148f860e0860182614611565b5061010083015161490d610100860182614611565b50610120830151614922610120860182614611565b50610140830151614937610140860182614611565b508091505092915050565b5f61494d8383614856565b905092915050565b5f602082019050919050565b5f61496b826147ae565b61497581856147b8565b935083602082028501614987856147c8565b805f5b858110156149c257848403895281516149a38582614942565b94506149ae83614955565b925060208a0199505060018101905061498a565b50829750879550505050505092915050565b5f6020820190508181035f8301526149ec8184614961565b905092915050565b6149fd81614335565b82525050565b5f602082019050614a165f8301846149f4565b92915050565b5f81519050919050565b5f82825260208201905092915050565b5f819050602082019050919050565b7f4e487b71000000000000000000000000000000000000000000000000000000005f52602160045260245ffd5b60048110614a8357614a82614a45565b5b50565b5f819050614a9382614a72565b919050565b5f614aa282614a86565b9050919050565b614ab281614a98565b82525050565b60a082015f820151614acc5f8501826145c2565b506020820151614adf60208501826145b3565b506040820151614af260408501826145e4565b506060820151614b056060850182614aa9565b506080820151614b1860808501826145b3565b50505050565b5f614b298383614ab8565b60a08301905092915050565b5f602082019050919050565b5f614b4b82614a1c565b614b558185614a26565b9350614b6083614a36565b805f5b83811015614b90578151614b778882614b1e565b9750614b8283614b35565b925050600181019050614b63565b5085935050505092915050565b5f6020820190508181035f830152614bb58184614b41565b905092915050565b60a082015f820151614bd15f8501826145c2565b506020820151614be460208501826145b3565b506040820151614bf760408501826145e4565b506060820151614c0a6060850182614aa9565b506080820151614c1d60808501826145b3565b50505050565b5f60a082019050614c365f830184614bbd565b92915050565b60048110614c48575f5ffd5b50565b5f81359050614c5981614c3c565b92915050565b5f5f5f60608486031215614c7657614c75614133565b5b5f614c838682870161415a565b9350506020614c948682870161435c565b9250506040614ca586828701614c4b565b9150509250925092565b5f61016083015f830151614cc55f8601826145b3565b506020830151614cd860208601826145b3565b5060408301518482036040860152614cf0828261480f565b9150506060830151614d0560608601826145c2565b506080830151614d1860808601826145e4565b5060a0830151614d2b60a0860182614602565b5060c0830151614d3e60c0860182614847565b5060e0830151614d5160e0860182614611565b50610100830151614d66610100860182614611565b50610120830151614d7b610120860182614611565b50610140830151614d90610140860182614611565b508091505092915050565b5f6020820190508181035f830152614db38184614caf565b905092915050565b614dc48161413b565b82525050565b5f602082019050614ddd5f830184614dbb565b92915050565b5f819050919050565b5f614e06614e01614dfc84614316565b614de3565b614316565b9050919050565b5f614e1782614dec565b9050919050565b5f614e2882614e0d565b9050919050565b614e3881614e1e565b82525050565b5f602082019050614e515f830184614e2f565b92915050565b5f5f5f60608486031215614e6e57614e6d614133565b5b5f614e7b8682870161415a565b9350506020614e8c8682870161435c565b9250506040614e9d8682870161415a565b9150509250925092565b7f4e487b71000000000000000000000000000000000000000000000000000000005f52601160045260245ffd5b5f614ede826145f3565b9150614ee9836145f3565b9250828203905063ffffffff811115614f0557614f04614ea7565b5b92915050565b5f604082019050614f1e5f8301856143ae565b614f2b60208301846142ee565b9392505050565b5f82825260208201905092915050565b828183375f83830152505050565b5f614f5b8385614f32565b9350614f68838584614f42565b614f71836147ff565b840190509392505050565b5f6040820190508181035f830152614f95818587614f50565b9050614fa460208301846142ee565b949350505050565b5f614fb6826142e5565b91507fffffffffffffffffffffffffffffffffffffffffffffffffffffffffffffffff8203614fe857614fe7614ea7565b5b600182019050919050565b7f4e487b71000000000000000000000000000000000000000000000000000000005f52604160045260245ffd5b7f4e487b71000000000000000000000000000000000000000000000000000000005f52602260045260245ffd5b5f600282049050600182168061506457607f821691505b60208210810361507757615076615020565b5b50919050565b5f819050815f5260205f209050919050565b5f6020601f8301049050919050565b5f82821b905092915050565b5f600883026150d97fffffffffffffffffffffffffffffffffffffffffffffffffffffffffffffffff8261509e565b6150e3868361509e565b95508019841693508086168417925050509392505050565b5f61511561511061510b846142e5565b614de3565b6142e5565b9050919050565b5f819050919050565b61512e836150fb565b61514261513a8261511c565b8484546150aa565b825550505050565b5f5f905090565b61515961514a565b615164818484615125565b505050565b5b818110156151875761517c5f82615151565b60018101905061516a565b5050565b601f8211156151cc5761519d8161507d565b6151a68461508f565b810160208510156151b5578190505b6151c96151c18561508f565b830182615169565b50505b505050565b5f82821c905092915050565b5f6151ec5f19846008026151d1565b1980831691505092915050565b5f61520483836151dd565b9150826002028217905092915050565b61521d826147d7565b67ffffffffffffffff81111561523657615235614ff3565b5b615240825461504d565b61524b82828561518b565b5f60209050601f83116001811461527c575f841561526a578287015190505b61527485826151f9565b8655506152db565b601f19841661528a8661507d565b5f5b828110156152b15784890151825560018201915060208501945060208101905061528c565b868310156152ce57848901516152ca601f8916826151dd565b8355505b6001600288020188555050505b505050505050565b5f6060820190506152f65f830186614dbb565b61530360208301856149f4565b61531060408301846142ee565b949350505050565b5f819050919050565b61533261532d8261413b565b615318565b82525050565b5f819050919050565b61535261534d826142e5565b615338565b82525050565b5f6153638286615321565b6020820191506153738285615341565b6020820191506153838284615321565b602082019150819050949350505050565b5f6060820190506153a75f8301866149f4565b6153b460208301856149f4565b6153c160408301846142ee565b949350505050565b5f815190506153d781614237565b92915050565b5f602082840312156153f2576153f1614133565b5b5f6153ff848285016153c9565b91505092915050565b5f615412826142e5565b915061541d836142e5565b925082820190508082111561543557615434614ea7565b5b92915050565b5f615445826145f3565b9150615450836145f3565b9250828201905063ffffffff81111561546c5761546b614ea7565b5b92915050565b61547b816145f3565b82525050565b5f6040820190506154945f830185615472565b6154a160208301846142ee565b9392505050565b5f6154b2826142e5565b91506154bd836142e5565b92508282039050818111156154d5576154d4614ea7565b5b92915050565b7f4e487b71000000000000000000000000000000000000000000000000000000005f52603260045260245ffd5b7f4e487b71000000000000000000000000000000000000000000000000000000005f52603160045260245ffd5b5f61553f826142e5565b91505f820361555157615550614ea7565b5b600182039050919050565b5f82905092915050565b615570838361555c565b67ffffffffffffffff81111561558957615588614ff3565b5b615593825461504d565b61559e82828561518b565b5f601f8311600181146155cb575f84156155b9578287013590505b6155c385826151f9565b86555061562a565b601f1984166155d98661507d565b5f5b82811015615600578489013582556001820191506020850194506020810190506155db565b8683101561561d5784890135615619601f8916826151dd565b8355505b6001600288020188555050505b50505050505050565b5f6040820190506156465f830185614dbb565b61565360208301846142ee565b9392505050565b5f60408201905061566d5f830185614dbb565b61567a60208301846149f4565b9392505050565b5f61568b826145f3565b915063ffffffff82036156a1576156a0614ea7565b5b600182019050919050565b7f4e487b71000000000000000000000000000000000000000000000000000000005f52601260045260245ffd5b5f6156e3826142e5565b91506156ee836142e5565b9250826156fe576156fd6156ac565b5b828204905092915050565b61571281614a98565b82525050565b5f60408201905061572b5f830185615709565b61573860208301846142ee565b9392505050565b5f60ff82169050919050565b6157548161573f565b82525050565b5f60808201905061576d5f830187614dbb565b61577a602083018661574b565b6157876040830185614dbb565b6157946060830184614dbb565b9594505050505056fea264697066735822122063605cce2bc89ca9215af7d87cf3c80196b3eb008841ad39db11af25ee95b30e64736f6c634300081e0033","linkReferences":{}},"methodIdentifiers":{"applyIdentityBond(bytes32,uint256,bytes32,bytes)":"36bf844b","approveRecovery(bytes32)":"484cc1d5","createIdentity(bytes32,bytes32,string,bool)":"05050cd6","createRecoverySession(bytes32,address)":"fe52225d","daiToken()":"be22f546","deleteIdentity(bytes32)":"97debe5a","executeRecovery(bytes32)":"7abed905","getAllIdentities()":"7eeede35","getGuardianCount(bytes32)":"f2586aad","getGuardianRegistration(bytes32,address)":"a90c42d4","getGuardians(bytes32)":"a4a3a4a3","getIdentityByPhoneHash(bytes32)":"ba6a3dd0","getIdentityCount()":"652cec06","getIdentityMetadataHash(bytes32)":"bb2f7040","getPhoneHash(address)":"ed9dbf42","getRecoverySession(bytes32)":"50b17903","identityExists(bytes32)":"827197a4","isGuardianActive(bytes32,address)":"716ec594","isIdentityOwner(bytes32,address)":"3390c35d","joinResolverPool(bytes32,uint256)":"6d0913aa","owner()":"8da5cb5b","registerGuardian(bytes32,address,bytes32)":"d8c04bb1","removeGuardian(bytes32,address)":"3cab947d","reportFraud(bytes32,string)":"0194ad53","setIdentityFreeze(bytes32,bool)":"6776afb5","setSigner(address)":"6c19e783","submitAppeal(bytes32,string)":"e8b9fd7b","transferOwnership(address)":"f2fde38b","updateGuardianStatus(bytes32,address,uint8)":"ac592c93","updateIdentity(bytes32,string,bool)":"48106b84","updateIdentityMetadataHash(bytes32,bytes32)":"4b4d5ac5","updateTrustLevel(bytes32,uint32)":"7947a9ae"},"id":0}