{"abi":[{"type":"constructor","inputs":[{"name":"_daiToken","type":"address","internalType":"address"},{"name":"_identityContract","type":"address","internalType":"address"},{"name":"_feeRecipient","type":"address","internalType":"address"}],"stateMutability":"nonpayable"},{"type":"function","name":"AUTO_RELEASE_DELAY","inputs":[],"outputs":[{"name":"","type":"uint256","internalType":"uint256"}],"stateMutability":"view"},{"type":"function","name":"DISPUTE_WINDOW","inputs":[],"outputs":[{"name":"","type":"uint256","internalType":"uint256"}],"stateMutability":"view"},{"type":"function","name":"MIN_RESOLVER_STAKE","inputs":[],"outputs":[{"name":"","type":"uint256","internalType":"uint256"}],"stateMutability":"view"},{"type":"function","name":"PLATFORM_FEE_BPS","inputs":[],"outputs":[{"name":"","type":"uint256","internalType":"uint256"}],"stateMutability":"view"},{"type":"function","name":"SLASHING_DELAY","inputs":[],"outputs":[{"name":"","type":"uint256","internalType":"uint256"}],"stateMutability":"view"},{"type":"function","name":"STAKE_LOCK_DURATION","inputs":[],"outputs":[{"name":"","type":"uint256","internalType":"uint256"}],"stateMutability":"view"},{"type":"function","name":"accumulatedFees","inputs":[],"outputs":[{"name":"","type":"uint256","internalType":"uint256"}],"stateMutability":"view"},{"type":"function","name":"activeResolvers","inputs":[{"name":"","type":"uint256","internalType":"uint256"}],"outputs":[{"name":"","type":"address","internalType":"address"}],"stateMutability":"view"},{"type":"function","name":"calculateDisputeFee","inputs":[{"name":"caller","type":"address","internalType":"address"}],"outputs":[{"name":"","type":"uint256","internalType":"uint256"}],"stateMutability":"view"},{"type":"function","name":"commitVote","inputs":[{"name":"tradeId","type":"bytes32","internalType":"bytes32"},{"name":"commit","type":"bytes32","internalType":"bytes32"}],"outputs":[],"stateMutability":"nonpayable"},{"type":"function","name":"completedTrades","inputs":[{"name":"","type":"address","internalType":"address"}],"outputs":[{"name":"","type":"uint64","internalType":"uint64"}],"stateMutability":"view"},{"type":"function","name":"confirmRelease","inputs":[{"name":"tradeId","type":"bytes32","internalType":"bytes32"}],"outputs":[],"stateMutability":"nonpayable"},{"type":"function","name":"daiToken","inputs":[],"outputs":[{"name":"","type":"address","internalType":"contract IERC20"}],"stateMutability":"view"},{"type":"function","name":"disputes","inputs":[{"name":"","type":"bytes32","internalType":"bytes32"}],"outputs":[{"name":"commitDeadline","type":"uint256","internalType":"uint256"},{"name":"revealDeadline","type":"uint256","internalType":"uint256"},{"name":"votesForSeller","type":"uint256","internalType":"uint256"},{"name":"votesForBuyer","type":"uint256","internalType":"uint256"},{"name":"resolved","type":"bool","internalType":"bool"},{"name":"disputeFee","type":"uint256","internalType":"uint256"}],"stateMutability":"view"},{"type":"function","name":"executeSlash","inputs":[{"name":"slashId","type":"uint256","internalType":"uint256"}],"outputs":[],"stateMutability":"nonpayable"},{"type":"function","name":"feeRecipient","inputs":[],"outputs":[{"name":"","type":"address","internalType":"address"}],"stateMutability":"view"},{"type":"function","name":"fundTrade","inputs":[{"name":"tradeId","type":"bytes32","internalType":"bytes32"},{"name":"seller","type":"address","internalType":"address"},{"name":"amount","type":"uint256","internalType":"uint256"},{"name":"offChainOrderId","type":"string","internalType":"string"}],"outputs":[],"stateMutability":"nonpayable"},{"type":"function","name":"getDispute","inputs":[{"name":"tradeId","type":"bytes32","internalType":"bytes32"}],"outputs":[{"name":"assignedResolvers","type":"address[]","internalType":"address[]"},{"name":"commitDeadline","type":"uint256","internalType":"uint256"},{"name":"revealDeadline","type":"uint256","internalType":"uint256"},{"name":"votesForSeller","type":"uint256","internalType":"uint256"},{"name":"votesForBuyer","type":"uint256","internalType":"uint256"},{"name":"resolved","type":"bool","internalType":"bool"}],"stateMutability":"view"},{"type":"function","name":"getTrade","inputs":[{"name":"tradeId","type":"bytes32","internalType":"bytes32"}],"outputs":[{"name":"","type":"tuple","internalType":"struct P2PEscrow.Trade","components":[{"name":"amount","type":"uint256","internalType":"uint256"},{"name":"buyer","type":"address","internalType":"address"},{"name":"fundedAt","type":"uint64","internalType":"uint64"},{"name":"status","type":"uint8","internalType":"enum P2PEscrow.TradeStatus"},{"name":"seller","type":"address","internalType":"address"},{"name":"releaseTime","type":"uint64","internalType":"uint64"},{"name":"disputeDeadline","type":"uint32","internalType":"uint32"},{"name":"offChainOrderId","type":"string","internalType":"string"},{"name":"balanceProofHash","type":"bytes32","internalType":"bytes32"}]}],"stateMutability":"view"},{"type":"function","name":"identityContract","inputs":[],"outputs":[{"name":"","type":"address","internalType":"contract IdentityContract"}],"stateMutability":"view"},{"type":"function","name":"nextSlashId","inputs":[],"outputs":[{"name":"","type":"uint256","internalType":"uint256"}],"stateMutability":"view"},{"type":"function","name":"openDispute","inputs":[{"name":"tradeId","type":"bytes32","internalType":"bytes32"}],"outputs":[],"stateMutability":"nonpayable"},{"type":"function","name":"owner","inputs":[],"outputs":[{"name":"","type":"address","internalType":"address"}],"stateMutability":"view"},{"type":"function","name":"pendingSlashes","inputs":[{"name":"","type":"uint256","internalType":"uint256"}],"outputs":[{"name":"resolver","type":"address","internalType":"address"},{"name":"amount","type":"uint256","internalType":"uint256"},{"name":"availableAt","type":"uint64","internalType":"uint64"},{"name":"vetoed","type":"bool","internalType":"bool"}],"stateMutability":"view"},{"type":"function","name":"platformFeeBps","inputs":[],"outputs":[{"name":"","type":"uint256","internalType":"uint256"}],"stateMutability":"view"},{"type":"function","name":"renounceOwnership","inputs":[],"outputs":[],"stateMutability":"nonpayable"},{"type":"function","name":"resolvers","inputs":[{"name":"","type":"address","internalType":"address"}],"outputs":[{"name":"stake","type":"uint256","internalType":"uint256"},{"name":"lastStakedAt","type":"uint64","internalType":"uint64"},{"name":"withdrawAvailableAt","type":"uint64","internalType":"uint64"},{"name":"isActive","type":"bool","internalType":"bool"}],"stateMutability":"view"},{"type":"function","name":"revealVote","inputs":[{"name":"tradeId","type":"bytes32","internalType":"bytes32"},{"name":"voteForSeller","type":"bool","internalType":"bool"},{"name":"salt","type":"bytes32","internalType":"bytes32"}],"outputs":[],"stateMutability":"nonpayable"},{"type":"function","name":"setFeeRecipient","inputs":[{"name":"_feeRecipient","type":"address","internalType":"address"}],"outputs":[],"stateMutability":"nonpayable"},{"type":"function","name":"setPlatformFee","inputs":[{"name":"_feeBps","type":"uint256","internalType":"uint256"}],"outputs":[],"stateMutability":"nonpayable"},{"type":"function","name":"stake","inputs":[{"name":"amount","type":"uint256","internalType":"uint256"}],"outputs":[],"stateMutability":"nonpayable"},{"type":"function","name":"trades","inputs":[{"name":"","type":"bytes32","internalType":"bytes32"}],"outputs":[{"name":"amount","type":"uint256","internalType":"uint256"},{"name":"buyer","type":"address","internalType":"address"},{"name":"fundedAt","type":"uint64","internalType":"uint64"},{"name":"status","type":"uint8","internalType":"enum P2PEscrow.TradeStatus"},{"name":"seller","type":"address","internalType":"address"},{"name":"releaseTime","type":"uint64","internalType":"uint64"},{"name":"disputeDeadline","type":"uint32","internalType":"uint32"},{"name":"offChainOrderId","type":"string","internalType":"string"},{"name":"balanceProofHash","type":"bytes32","internalType":"bytes32"}],"stateMutability":"view"},{"type":"function","name":"transferOwnership","inputs":[{"name":"newOwner","type":"address","internalType":"address"}],"outputs":[],"stateMutability":"nonpayable"},{"type":"function","name":"unstake","inputs":[{"name":"amount","type":"uint256","internalType":"uint256"}],"outputs":[],"stateMutability":"nonpayable"},{"type":"function","name":"vetoSlash","inputs":[{"name":"slashId","type":"uint256","internalType":"uint256"}],"outputs":[],"stateMutability":"nonpayable"},{"type":"function","name":"withdrawFees","inputs":[],"outputs":[],"stateMutability":"nonpayable"},{"type":"event","name":"DisputeOpened","inputs":[{"name":"tradeId","type":"bytes32","indexed":true,"internalType":"bytes32"},{"name":"disputedBy","type":"address","indexed":true,"internalType":"address"},{"name":"resolvers","type":"address[]","indexed":false,"internalType":"address[]"}],"anonymous":false},{"type":"event","name":"DisputeResolved","inputs":[{"name":"tradeId","type":"bytes32","indexed":true,"internalType":"bytes32"},{"name":"releasedToSeller","type":"bool","indexed":false,"internalType":"bool"}],"anonymous":false},{"type":"event","name":"OwnershipTransferred","inputs":[{"name":"previousOwner","type":"address","indexed":true,"internalType":"address"},{"name":"newOwner","type":"address","indexed":true,"internalType":"address"}],"anonymous":false},{"type":"event","name":"ResolverSlashed","inputs":[{"name":"resolver","type":"address","indexed":true,"internalType":"address"},{"name":"amount","type":"uint256","indexed":false,"internalType":"uint256"},{"name":"reason","type":"string","indexed":false,"internalType":"string"}],"anonymous":false},{"type":"event","name":"SchellingReward","inputs":[{"name":"resolver","type":"address","indexed":true,"internalType":"address"},{"name":"amount","type":"uint256","indexed":false,"internalType":"uint256"}],"anonymous":false},{"type":"event","name":"Staked","inputs":[{"name":"resolver","type":"address","indexed":true,"internalType":"address"},{"name":"amount","type":"uint256","indexed":false,"internalType":"uint256"}],"anonymous":false},{"type":"event","name":"TradeFunded","inputs":[{"name":"tradeId","type":"bytes32","indexed":true,"internalType":"bytes32"},{"name":"buyer","type":"address","indexed":true,"internalType":"address"},{"name":"seller","type":"address","indexed":true,"internalType":"address"},{"name":"amount","type":"uint256","indexed":false,"internalType":"uint256"}],"anonymous":false},{"type":"event","name":"Unstaked","inputs":[{"name":"resolver","type":"address","indexed":true,"internalType":"address"},{"name":"amount","type":"uint256","indexed":false,"internalType":"uint256"}],"anonymous":false},{"type":"event","name":"VoteCommitted","inputs":[{"name":"tradeId","type":"bytes32","indexed":true,"internalType":"bytes32"},{"name":"resolver","type":"address","indexed":true,"internalType":"address"}],"anonymous":false},{"type":"event","name":"VoteRevealed","inputs":[{"name":"tradeId","type":"bytes32","indexed":true,"internalType":"bytes32"},{"name":"resolver","type":"address","indexed":true,"internalType":"address"},{"name":"voteForSeller","type":"bool","indexed":false,"internalType":"bool"}],"anonymous":false},{"type":"error","name":"AlreadyResolved","inputs":[]},{"type":"error","name":"CannotTradeWithSelf","inputs":[]},{"type":"error","name":"DisputeWindowClosed","inputs":[]},{"type":"error","name":"FeeTooHigh","inputs":[]},{"type":"error","name":"InsufficientStake","inputs":[]},{"type":"error","name":"InvalidAddress","inputs":[]},{"type":"error","name":"InvalidAmount","inputs":[]},{"type":"error","name":"InvalidReveal","inputs":[]},{"type":"error","name":"InvalidTradeStatus","inputs":[]},{"type":"error","name":"NoFeesToWithdraw","inputs":[]},{"type":"error","name":"NotBuyer","inputs":[]},{"type":"error","name":"NotDisputed","inputs":[]},{"type":"error","name":"NotPartyToTrade","inputs":[]},{"type":"error","name":"OwnableInvalidOwner","inputs":[{"name":"owner","type":"address","internalType":"address"}]},{"type":"error","name":"OwnableUnauthorizedAccount","inputs":[{"name":"account","type":"address","internalType":"address"}]},{"type":"error","name":"ReentrancyGuardReentrantCall","inputs":[]},{"type":"error","name":"SafeERC20FailedOperation","inputs":[{"name":"token","type":"address","internalType":"address"}]},{"type":"error","name":"TooEarly","inputs":[]},{"type":"error","name":"TradeAlreadyExists","inputs":[]},{"type":"error","name":"TradeNotFound","inputs":[]},{"type":"error","name":"Unauthorized","inputs":[]},{"type":"error","name":"VoteAlreadyCommitted","inputs":[]},{"type":"error","name":"VoteNotCommitted","inputs":[]},{"type":"error","name":"WithdrawLocked","inputs":[]}],"bytecode":{"object":"0x60c060405234801561000f575f5ffd5b506040516159a33803806159a3833981810160405281019061003191906103b1565b33600161005061004561026060201b60201c565b61028960201b60201c565b5f01819055505f73ffffffffffffffffffffffffffffffffffffffff168173ffffffffffffffffffffffffffffffffffffffff16036100c6575f6040517f1e4fbdf70000000000000000000000000000000000000000000000000000000081526004016100bd9190610410565b60405180910390fd5b6100d58161029260201b60201c565b505f73ffffffffffffffffffffffffffffffffffffffff168373ffffffffffffffffffffffffffffffffffffffff16148061013b57505f73ffffffffffffffffffffffffffffffffffffffff168273ffffffffffffffffffffffffffffffffffffffff16145b8061017157505f73ffffffffffffffffffffffffffffffffffffffff168173ffffffffffffffffffffffffffffffffffffffff16145b156101a8576040517fe6c4247b00000000000000000000000000000000000000000000000000000000815260040160405180910390fd5b8273ffffffffffffffffffffffffffffffffffffffff1660808173ffffffffffffffffffffffffffffffffffffffff16815250508173ffffffffffffffffffffffffffffffffffffffff1660a08173ffffffffffffffffffffffffffffffffffffffff16815250508060015f6101000a81548173ffffffffffffffffffffffffffffffffffffffff021916908373ffffffffffffffffffffffffffffffffffffffff1602179055506064600281905550505050610429565b5f7f9b779b17422d0df92223018b32b4d1fa46e071723d6817e2486d003becc55f005f1b905090565b5f819050919050565b5f5f5f9054906101000a900473ffffffffffffffffffffffffffffffffffffffff169050815f5f6101000a81548173ffffffffffffffffffffffffffffffffffffffff021916908373ffffffffffffffffffffffffffffffffffffffff1602179055508173ffffffffffffffffffffffffffffffffffffffff168173ffffffffffffffffffffffffffffffffffffffff167f8be0079c531659141344cd1fd0a4f28419497f9722a3daafe3b4186f6b6457e060405160405180910390a35050565b5f5ffd5b5f73ffffffffffffffffffffffffffffffffffffffff82169050919050565b5f61038082610357565b9050919050565b61039081610376565b811461039a575f5ffd5b50565b5f815190506103ab81610387565b92915050565b5f5f5f606084860312156103c8576103c7610353565b5b5f6103d58682870161039d565b93505060206103e68682870161039d565b92505060406103f78682870161039d565b9150509250925092565b61040a81610376565b82525050565b5f6020820190506104235f830184610401565b92915050565b60805160a0516154f06104b35f395f8181611940015281816125b8015281816125f401528181612a7501528181612b100152818161361d015281816136b701528181613de70152613e8201525f8181610a8d01528181610f00015281816114800152818161212c01528181612463015281816130aa015281816133a0015261358801526154f05ff3fe608060405234801561000f575f5ffd5b5060043610610219575f3560e01c8063712255ec11610123578063a694fc3a116100ab578063e74b981b1161007a578063e74b981b1461062d578063f08ef6cb14610649578063f2fde38b14610665578063f585dc5714610681578063f9fc30911461069f57610219565b8063a694fc3a146105a2578063b469ab68146105be578063b93793e9146105dc578063be22f5461461060f57610219565b80638a6e47ba116100f25780638a6e47ba146104d65780638da5cb5b146105065780639f3e181914610524578063a03596cb14610554578063a3b137991461057257610219565b8063712255ec14610474578063715018a61461049257806373d6c8e51461049c5780637ac0931a146104ba57610219565b80633edd9f35116101a6578063539aa77f11610175578063539aa77f146103e2578063587f5ed71461040057806358fad0911461041e57806367031bae1461043a57806369ae9af81461045857610219565b80633edd9f351461036b5780634690484014610387578063476343ee146103a557806349750867146103af57610219565b8063136ba6aa116101ed578063136ba6aa146102c4578063144747ab146102f957806322dcd13e146103155780632e17de78146103335780633bbd22351461034f57610219565b80621624201461021d57806309499aa61461025557806311be19971461027357806312e8e2c3146102a8575b5f5ffd5b6102376004803603810190610232919061412c565b6106cf565b60405161024c999897969594939291906142e0565b60405180910390f35b61025d610822565b60405161026a9190614372565b60405180910390f35b61028d6004803603810190610288919061412c565b610829565b60405161029f969594939291906143a5565b60405180910390f35b6102c260048036038101906102bd919061442e565b61086e565b005b6102de60048036038101906102d9919061412c565b6108bc565b6040516102f096959493929190614510565b60405180910390f35b610313600480360381019061030e9190614601565b61099a565b005b61031d610dbf565b60405161032a9190614372565b60405180910390f35b61034d6004803603810190610348919061442e565b610dc5565b005b61036960048036038101906103649190614685565b610f9e565b005b6103856004803603810190610380919061412c565b6111b5565b005b61038f61135f565b60405161039c91906146c3565b60405180910390f35b6103ad611384565b005b6103c960048036038101906103c4919061442e565b6114cf565b6040516103d994939291906146dc565b60405180910390f35b6103ea61153a565b6040516103f79190614372565b60405180910390f35b61040861153f565b6040516104159190614372565b60405180910390f35b61043860048036038101906104339190614749565b611545565b005b61044261193e565b60405161044f91906147f4565b60405180910390f35b610472600480360381019061046d919061442e565b611962565b005b61047c611d02565b6040516104899190614372565b60405180910390f35b61049a611d0f565b005b6104a4611d22565b6040516104b19190614372565b60405180910390f35b6104d460048036038101906104cf919061442e565b611d29565b005b6104f060048036038101906104eb919061480d565b611dc5565b6040516104fd9190614838565b60405180910390f35b61050e611de9565b60405161051b91906146c3565b60405180910390f35b61053e6004803603810190610539919061442e565b611e10565b60405161054b91906146c3565b60405180910390f35b61055c611e4b565b6040516105699190614372565b60405180910390f35b61058c6004803603810190610587919061412c565b611e51565b60405161059991906149a6565b60405180910390f35b6105bc60048036038101906105b7919061442e565b61208f565b005b6105c66123fa565b6040516105d39190614372565b60405180910390f35b6105f660048036038101906105f1919061480d565b612401565b60405161060694939291906149c6565b60405180910390f35b610617612461565b6040516106249190614a29565b60405180910390f35b6106476004803603810190610642919061480d565b612485565b005b610663600480360381019061065e919061412c565b612535565b005b61067f600480360381019061067a919061480d565b6129e6565b005b610689612a6a565b6040516106969190614372565b60405180910390f35b6106b960048036038101906106b4919061480d565b612a71565b6040516106c69190614372565b60405180910390f35b6009602052805f5260405f205f91509050805f015490806001015f9054906101000a900473ffffffffffffffffffffffffffffffffffffffff16908060010160149054906101000a900467ffffffffffffffff169080600101601c9054906101000a900460ff1690806002015f9054906101000a900473ffffffffffffffffffffffffffffffffffffffff16908060020160149054906101000a900467ffffffffffffffff169080600201601c9054906101000a900463ffffffff169080600301805461079b90614a6f565b80601f01602080910402602001604051908101604052809291908181526020018280546107c790614a6f565b80156108125780601f106107e957610100808354040283529160200191610812565b820191905f5260205f20905b8154815290600101906020018083116107f557829003601f168201915b5050505050908060040154905089565b6202a30081565b6008602052805f5260405f205f91509050806001015490806002015490806003015490806004015490806005015f9054906101000a900460ff16908060060154905086565b610876612bfe565b6101f48111156108b2576040517fcd4e616700000000000000000000000000000000000000000000000000000000815260040160405180910390fd5b8060028190555050565b60605f5f5f5f5f5f60085f8981526020019081526020015f209050805f018160010154826002015483600301548460040154856005015f9054906101000a900460ff168580548060200260200160405190810160405280929190818152602001828054801561097d57602002820191905f5260205f20905b815f9054906101000a900473ffffffffffffffffffffffffffffffffffffffff1673ffffffffffffffffffffffffffffffffffffffff1681526020019060010190808311610934575b505050505095509650965096509650965096505091939550919395565b6109a2612c85565b5f60048111156109b5576109b46141d0565b5b60095f8781526020019081526020015f20600101601c9054906101000a900460ff1660048111156109e9576109e86141d0565b5b14610a20576040517f8f7308d300000000000000000000000000000000000000000000000000000000815260040160405180910390fd5b3373ffffffffffffffffffffffffffffffffffffffff168473ffffffffffffffffffffffffffffffffffffffff1603610a85576040517f9cbdca7200000000000000000000000000000000000000000000000000000000815260040160405180910390fd5b610ad23330857f000000000000000000000000000000000000000000000000000000000000000073ffffffffffffffffffffffffffffffffffffffff16612ca7909392919063ffffffff16565b6040518061012001604052808481526020013373ffffffffffffffffffffffffffffffffffffffff1681526020014267ffffffffffffffff16815260200160016004811115610b2457610b236141d0565b5b81526020018573ffffffffffffffffffffffffffffffffffffffff1681526020016202a30042610b549190614acc565b67ffffffffffffffff1681526020016201518042610b729190614acc565b63ffffffff16815260200183838080601f0160208091040260200160405190810160405280939291908181526020018383808284375f81840152601f19601f8201169050808301925050505050505081526020015f5f1b81525060095f8781526020019081526020015f205f820151815f01556020820151816001015f6101000a81548173ffffffffffffffffffffffffffffffffffffffff021916908373ffffffffffffffffffffffffffffffffffffffff16021790555060408201518160010160146101000a81548167ffffffffffffffff021916908367ffffffffffffffff160217905550606082015181600101601c6101000a81548160ff02191690836004811115610c8557610c846141d0565b5b02179055506080820151816002015f6101000a81548173ffffffffffffffffffffffffffffffffffffffff021916908373ffffffffffffffffffffffffffffffffffffffff16021790555060a08201518160020160146101000a81548167ffffffffffffffff021916908367ffffffffffffffff16021790555060c082015181600201601c6101000a81548163ffffffff021916908363ffffffff16021790555060e0820151816003019081610d3b9190614cc3565b5061010082015181600401559050508373ffffffffffffffffffffffffffffffffffffffff163373ffffffffffffffffffffffffffffffffffffffff16867f9708cd1130f4945e595c9f23ebd59bfeb98796c4c37d03c8eb33d2e05898886586604051610da89190614372565b60405180910390a4610db8612cfc565b5050505050565b60025481565b610dcd612c85565b5f60045f3373ffffffffffffffffffffffffffffffffffffffff1673ffffffffffffffffffffffffffffffffffffffff1681526020019081526020015f2090508060010160089054906101000a900467ffffffffffffffff1667ffffffffffffffff16421015610e69576040517f81797b0800000000000000000000000000000000000000000000000000000000815260040160405180910390fd5b81815f01541015610ea6576040517f2c5211c600000000000000000000000000000000000000000000000000000000815260040160405180910390fd5b81815f015f828254610eb89190614d92565b9250508190555068056bc75e2d63100000815f01541015610ef9575f8160010160106101000a81548160ff021916908315150217905550610ef833612d16565b5b610f4433837f000000000000000000000000000000000000000000000000000000000000000073ffffffffffffffffffffffffffffffffffffffff16612e969092919063ffffffff16565b3373ffffffffffffffffffffffffffffffffffffffff167f0f5bb82176feb1b5e747e28471aa92156a04d9f3ab9f45f28e2d704232b93f7583604051610f8a9190614372565b60405180910390a250610f9b612cfc565b50565b5f60085f8481526020019081526020015f209050600480811115610fc557610fc46141d0565b5b60095f8581526020019081526020015f20600101601c9054906101000a900460ff166004811115610ff957610ff86141d0565b5b14611030576040517f433b0e1400000000000000000000000000000000000000000000000000000000815260040160405180910390fd5b806001015442111561106e576040517f435a3cfe00000000000000000000000000000000000000000000000000000000815260040160405180910390fd5b6110788333612ee9565b6110ae576040517f82b4290000000000000000000000000000000000000000000000000000000000815260040160405180910390fd5b5f5f1b816007015f3373ffffffffffffffffffffffffffffffffffffffff1673ffffffffffffffffffffffffffffffffffffffff1681526020019081526020015f205414611128576040517fcf1c5b9c00000000000000000000000000000000000000000000000000000000815260040160405180910390fd5b81816007015f3373ffffffffffffffffffffffffffffffffffffffff1673ffffffffffffffffffffffffffffffffffffffff1681526020019081526020015f20819055503373ffffffffffffffffffffffffffffffffffffffff16837f9cd4aacbdbc254c07a57c349c331b572681203cd9a05fa9526df11f60921b9b460405160405180910390a3505050565b6111bd612c85565b805f60048111156111d1576111d06141d0565b5b60095f8381526020019081526020015f20600101601c9054906101000a900460ff166004811115611205576112046141d0565b5b0361123c576040517f630bae0400000000000000000000000000000000000000000000000000000000815260040160405180910390fd5b5f60095f8481526020019081526020015f20905060016004811115611264576112636141d0565b5b81600101601c9054906101000a900460ff166004811115611288576112876141d0565b5b146112bf576040517f94b3250800000000000000000000000000000000000000000000000000000000815260040160405180910390fd5b806001015f9054906101000a900473ffffffffffffffffffffffffffffffffffffffff1673ffffffffffffffffffffffffffffffffffffffff163373ffffffffffffffffffffffffffffffffffffffff1614611347576040517f472e017e00000000000000000000000000000000000000000000000000000000815260040160405180910390fd5b61135283825f613001565b505061135c612cfc565b50565b60015f9054906101000a900473ffffffffffffffffffffffffffffffffffffffff1681565b61138c612c85565b60015f9054906101000a900473ffffffffffffffffffffffffffffffffffffffff1673ffffffffffffffffffffffffffffffffffffffff163373ffffffffffffffffffffffffffffffffffffffff1614611412576040517f82b4290000000000000000000000000000000000000000000000000000000000815260040160405180910390fd5b5f60035490505f8103611451576040517f6806da6800000000000000000000000000000000000000000000000000000000815260040160405180910390fd5b5f6003819055506114c460015f9054906101000a900473ffffffffffffffffffffffffffffffffffffffff16827f000000000000000000000000000000000000000000000000000000000000000073ffffffffffffffffffffffffffffffffffffffff16612e969092919063ffffffff16565b506114cd612cfc565b565b6006602052805f5260405f205f91509050805f015f9054906101000a900473ffffffffffffffffffffffffffffffffffffffff1690806001015490806002015f9054906101000a900467ffffffffffffffff16908060020160089054906101000a900460ff16905084565b606481565b60035481565b5f60085f8581526020019081526020015f20905080600101544211611596576040517f085de62500000000000000000000000000000000000000000000000000000000815260040160405180910390fd5b80600201544211156115d4576040517f435a3cfe00000000000000000000000000000000000000000000000000000000815260040160405180910390fd5b5f5f1b816007015f3373ffffffffffffffffffffffffffffffffffffffff1673ffffffffffffffffffffffffffffffffffffffff1681526020019081526020015f20540361164e576040517f2962014600000000000000000000000000000000000000000000000000000000815260040160405180910390fd5b806008015f3373ffffffffffffffffffffffffffffffffffffffff1673ffffffffffffffffffffffffffffffffffffffff1681526020019081526020015f205f9054906101000a900460ff16156116d1576040517f9ea6d12700000000000000000000000000000000000000000000000000000000815260040160405180910390fd5b5f83836040516020016116e5929190614e2a565b60405160208183030381529060405280519060200120905080826007015f3373ffffffffffffffffffffffffffffffffffffffff1673ffffffffffffffffffffffffffffffffffffffff1681526020019081526020015f205414611775576040517f9ea6d12700000000000000000000000000000000000000000000000000000000815260040160405180910390fd5b6001826008015f3373ffffffffffffffffffffffffffffffffffffffff1673ffffffffffffffffffffffffffffffffffffffff1681526020019081526020015f205f6101000a81548160ff021916908315150217905550831561184757816003015f8154809291906117e690614e55565b91905055506001826009015f3373ffffffffffffffffffffffffffffffffffffffff1673ffffffffffffffffffffffffffffffffffffffff1681526020019081526020015f205f6101000a81548160ff0219169083151502179055506118b7565b816004015f81548092919061185b90614e55565b91905055505f826009015f3373ffffffffffffffffffffffffffffffffffffffff1673ffffffffffffffffffffffffffffffffffffffff1681526020019081526020015f205f6101000a81548160ff0219169083151502179055505b3373ffffffffffffffffffffffffffffffffffffffff16857f06dea44f030487e610a84d84afc9dd37b6c271e6a9b7a99cdb4e07f7a06e8584866040516118fe9190614e9c565b60405180910390a36002826003015410158061191f57506002826004015410155b156119375761193685600284600301541015613248565b5b5050505050565b7f000000000000000000000000000000000000000000000000000000000000000081565b61196a612c85565b5f60065f8381526020019081526020015f209050806002015f9054906101000a900467ffffffffffffffff1667ffffffffffffffff164210156119d9576040517f085de62500000000000000000000000000000000000000000000000000000000815260040160405180910390fd5b8060020160089054906101000a900460ff16806119f957505f8160010154145b15611a30576040517f82b4290000000000000000000000000000000000000000000000000000000000815260040160405180910390fd5b5f816001015490505f82600101819055508060045f845f015f9054906101000a900473ffffffffffffffffffffffffffffffffffffffff1673ffffffffffffffffffffffffffffffffffffffff1673ffffffffffffffffffffffffffffffffffffffff1681526020019081526020015f205f015410611b25578060045f845f015f9054906101000a900473ffffffffffffffffffffffffffffffffffffffff1673ffffffffffffffffffffffffffffffffffffffff1673ffffffffffffffffffffffffffffffffffffffff1681526020019081526020015f205f015f828254611b199190614d92565b92505081905550611bf0565b60045f835f015f9054906101000a900473ffffffffffffffffffffffffffffffffffffffff1673ffffffffffffffffffffffffffffffffffffffff1673ffffffffffffffffffffffffffffffffffffffff1681526020019081526020015f205f015490505f60045f845f015f9054906101000a900473ffffffffffffffffffffffffffffffffffffffff1673ffffffffffffffffffffffffffffffffffffffff1673ffffffffffffffffffffffffffffffffffffffff1681526020019081526020015f205f01819055505b68056bc75e2d6310000060045f845f015f9054906101000a900473ffffffffffffffffffffffffffffffffffffffff1673ffffffffffffffffffffffffffffffffffffffff1673ffffffffffffffffffffffffffffffffffffffff1681526020019081526020015f205f01541015611cdd575f60045f845f015f9054906101000a900473ffffffffffffffffffffffffffffffffffffffff1673ffffffffffffffffffffffffffffffffffffffff1673ffffffffffffffffffffffffffffffffffffffff1681526020019081526020015f2060010160106101000a81548160ff0219169083151502179055505b8060035f828254611cee9190614acc565b925050819055505050611cff612cfc565b50565b68056bc75e2d6310000081565b611d17612bfe565b611d205f6137ee565b565b62278d0081565b611d31611de9565b73ffffffffffffffffffffffffffffffffffffffff163373ffffffffffffffffffffffffffffffffffffffff1614611d95576040517f82b4290000000000000000000000000000000000000000000000000000000000815260040160405180910390fd5b600160065f8381526020019081526020015f2060020160086101000a81548160ff02191690831515021790555050565b600a602052805f5260405f205f915054906101000a900467ffffffffffffffff1681565b5f5f5f9054906101000a900473ffffffffffffffffffffffffffffffffffffffff16905090565b60058181548110611e1f575f80fd5b905f5260205f20015f915054906101000a900473ffffffffffffffffffffffffffffffffffffffff1681565b60075481565b611e59613faa565b60095f8381526020019081526020015f20604051806101200160405290815f8201548152602001600182015f9054906101000a900473ffffffffffffffffffffffffffffffffffffffff1673ffffffffffffffffffffffffffffffffffffffff1673ffffffffffffffffffffffffffffffffffffffff1681526020016001820160149054906101000a900467ffffffffffffffff1667ffffffffffffffff1667ffffffffffffffff16815260200160018201601c9054906101000a900460ff166004811115611f2b57611f2a6141d0565b5b6004811115611f3d57611f3c6141d0565b5b8152602001600282015f9054906101000a900473ffffffffffffffffffffffffffffffffffffffff1673ffffffffffffffffffffffffffffffffffffffff1673ffffffffffffffffffffffffffffffffffffffff1681526020016002820160149054906101000a900467ffffffffffffffff1667ffffffffffffffff1667ffffffffffffffff16815260200160028201601c9054906101000a900463ffffffff1663ffffffff1663ffffffff168152602001600382018054611ffe90614a6f565b80601f016020809104026020016040519081016040528092919081815260200182805461202a90614a6f565b80156120755780601f1061204c57610100808354040283529160200191612075565b820191905f5260205f20905b81548152906001019060200180831161205857829003601f168201915b505050505081526020016004820154815250509050919050565b612097612c85565b68056bc75e2d63100000811080156120ed57505f60045f3373ffffffffffffffffffffffffffffffffffffffff1673ffffffffffffffffffffffffffffffffffffffff1681526020019081526020015f205f0154145b15612124576040517ff1bc94d200000000000000000000000000000000000000000000000000000000815260040160405180910390fd5b6121713330837f000000000000000000000000000000000000000000000000000000000000000073ffffffffffffffffffffffffffffffffffffffff16612ca7909392919063ffffffff16565b5f60045f3373ffffffffffffffffffffffffffffffffffffffff1673ffffffffffffffffffffffffffffffffffffffff1681526020019081526020015f205f01540361227157600533908060018154018082558091505060019003905f5260205f20015f9091909190916101000a81548173ffffffffffffffffffffffffffffffffffffffff021916908373ffffffffffffffffffffffffffffffffffffffff160217905550600160045f3373ffffffffffffffffffffffffffffffffffffffff1673ffffffffffffffffffffffffffffffffffffffff1681526020019081526020015f2060010160106101000a81548160ff0219169083151502179055505b8060045f3373ffffffffffffffffffffffffffffffffffffffff1673ffffffffffffffffffffffffffffffffffffffff1681526020019081526020015f205f015f8282546122bf9190614acc565b925050819055504260045f3373ffffffffffffffffffffffffffffffffffffffff1673ffffffffffffffffffffffffffffffffffffffff1681526020019081526020015f206001015f6101000a81548167ffffffffffffffff021916908367ffffffffffffffff16021790555062278d004261233b9190614acc565b60045f3373ffffffffffffffffffffffffffffffffffffffff1673ffffffffffffffffffffffffffffffffffffffff1681526020019081526020015f2060010160086101000a81548167ffffffffffffffff021916908367ffffffffffffffff1602179055503373ffffffffffffffffffffffffffffffffffffffff167f9e71bc8eea02a63969f509818f2dafb9254532904319f9dbda79b67bd34a5f3d826040516123e79190614372565b60405180910390a26123f7612cfc565b50565b6276a70081565b6004602052805f5260405f205f91509050805f015490806001015f9054906101000a900467ffffffffffffffff16908060010160089054906101000a900467ffffffffffffffff16908060010160109054906101000a900460ff16905084565b7f000000000000000000000000000000000000000000000000000000000000000081565b61248d612bfe565b5f73ffffffffffffffffffffffffffffffffffffffff168173ffffffffffffffffffffffffffffffffffffffff16036124f2576040517fe6c4247b00000000000000000000000000000000000000000000000000000000815260040160405180910390fd5b8060015f6101000a81548173ffffffffffffffffffffffffffffffffffffffff021916908373ffffffffffffffffffffffffffffffffffffffff16021790555050565b805f6004811115612549576125486141d0565b5b60095f8381526020019081526020015f20600101601c9054906101000a900460ff16600481111561257d5761257c6141d0565b5b036125b4576040517f630bae0400000000000000000000000000000000000000000000000000000000815260040160405180910390fd5b335f7f000000000000000000000000000000000000000000000000000000000000000073ffffffffffffffffffffffffffffffffffffffff1663ba6a3dd07f000000000000000000000000000000000000000000000000000000000000000073ffffffffffffffffffffffffffffffffffffffff1663ed9dbf42856040518263ffffffff1660e01b815260040161264b91906146c3565b602060405180830381865afa158015612666573d5f5f3e3d5ffd5b505050506040513d601f19601f8201168201806040525081019061268a9190614ec9565b6040518263ffffffff1660e01b81526004016126a69190614ef4565b5f60405180830381865afa1580156126c0573d5f5f3e3d5ffd5b505050506040513d5f823e3d601f19601f820116820180604052508101906126e891906151b7565b905080610120015180612705575060148160a0015163ffffffff16105b1561273c576040517f82b4290000000000000000000000000000000000000000000000000000000000815260040160405180910390fd5b5f60095f8681526020019081526020015f20905060016004811115612764576127636141d0565b5b81600101601c9054906101000a900460ff166004811115612788576127876141d0565b5b146127bf576040517f94b3250800000000000000000000000000000000000000000000000000000000815260040160405180910390fd5b806001015f9054906101000a900473ffffffffffffffffffffffffffffffffffffffff1673ffffffffffffffffffffffffffffffffffffffff163373ffffffffffffffffffffffffffffffffffffffff161415801561286d5750806002015f9054906101000a900473ffffffffffffffffffffffffffffffffffffffff1673ffffffffffffffffffffffffffffffffffffffff163373ffffffffffffffffffffffffffffffffffffffff1614155b156128a4576040517f33ed0de400000000000000000000000000000000000000000000000000000000815260040160405180910390fd5b80600201601c9054906101000a900463ffffffff1663ffffffff1642106128f7576040517f435a3cfe00000000000000000000000000000000000000000000000000000000815260040160405180910390fd5b600481600101601c6101000a81548160ff0219169083600481111561291f5761291e6141d0565b5b02179055505f61292e866138af565b90505f60085f8881526020019081526020015f20905081815f01908051906020019061295b929190614046565b50620151804261296b9190614acc565b81600101819055506201518081600101546129869190614acc565b81600201819055503373ffffffffffffffffffffffffffffffffffffffff16877f9e7c7c0b6f83b3342ef72ffcabceddfd9c93f10482fc55465c970e8d3546580c846040516129d591906151fe565b60405180910390a350505050505050565b6129ee612bfe565b5f73ffffffffffffffffffffffffffffffffffffffff168173ffffffffffffffffffffffffffffffffffffffff1603612a5e575f6040517f1e4fbdf7000000000000000000000000000000000000000000000000000000008152600401612a5591906146c3565b60405180910390fd5b612a67816137ee565b50565b6201518081565b5f5f7f000000000000000000000000000000000000000000000000000000000000000073ffffffffffffffffffffffffffffffffffffffff1663ed9dbf42846040518263ffffffff1660e01b8152600401612acc91906146c3565b602060405180830381865afa158015612ae7573d5f5f3e3d5ffd5b505050506040513d601f19601f82011682018060405250810190612b0b9190614ec9565b90505f7f000000000000000000000000000000000000000000000000000000000000000073ffffffffffffffffffffffffffffffffffffffff1663ba6a3dd0836040518263ffffffff1660e01b8152600401612b679190614ef4565b5f60405180830381865afa158015612b81573d5f5f3e3d5ffd5b505050506040513d5f823e3d601f19601f82011682018060405250810190612ba991906151b7565b90505f8160a00151614e20612bbe919061524b565b63ffffffff1690506032811015612bdb5760329350505050612bf9565b6103e8811115612bf2576103e89350505050612bf9565b8093505050505b919050565b612c06613b26565b73ffffffffffffffffffffffffffffffffffffffff16612c24611de9565b73ffffffffffffffffffffffffffffffffffffffff1614612c8357612c47613b26565b6040517f118cdaa7000000000000000000000000000000000000000000000000000000008152600401612c7a91906146c3565b60405180910390fd5b565b612c8d613b2d565b6002612c9f612c9a613b6e565b613b97565b5f0181905550565b612cb5848484846001613ba0565b612cf657836040517f5274afe7000000000000000000000000000000000000000000000000000000008152600401612ced91906146c3565b60405180910390fd5b50505050565b6001612d0e612d09613b6e565b613b97565b5f0181905550565b5f5f90505b600580549050811015612e92578173ffffffffffffffffffffffffffffffffffffffff1660058281548110612d5357612d5261527b565b5b905f5260205f20015f9054906101000a900473ffffffffffffffffffffffffffffffffffffffff1673ffffffffffffffffffffffffffffffffffffffff1603612e855760056001600580549050612daa9190614d92565b81548110612dbb57612dba61527b565b5b905f5260205f20015f9054906101000a900473ffffffffffffffffffffffffffffffffffffffff1660058281548110612df757612df661527b565b5b905f5260205f20015f6101000a81548173ffffffffffffffffffffffffffffffffffffffff021916908373ffffffffffffffffffffffffffffffffffffffff1602179055506005805480612e4e57612e4d6152a8565b5b600190038181905f5260205f20015f6101000a81549073ffffffffffffffffffffffffffffffffffffffff02191690559055612e92565b8080600101915050612d1b565b5050565b612ea38383836001613c11565b612ee457826040517f5274afe7000000000000000000000000000000000000000000000000000000008152600401612edb91906146c3565b60405180910390fd5b505050565b5f5f60085f8581526020019081526020015f205f01805480602002602001604051908101604052809291908181526020018280548015612f7b57602002820191905f5260205f20905b815f9054906101000a900473ffffffffffffffffffffffffffffffffffffffff1673ffffffffffffffffffffffffffffffffffffffff1681526020019060010190808311612f32575b505050505090505f5f90505b8151811015612ff5578373ffffffffffffffffffffffffffffffffffffffff16828281518110612fba57612fb961527b565b5b602002602001015173ffffffffffffffffffffffffffffffffffffffff1603612fe857600192505050612ffb565b8080600101915050612f87565b505f9150505b92915050565b600282600101601c6101000a81548160ff02191690836004811115613029576130286141d0565b5b02179055505f612710826002546130409190614acc565b845f015461304e91906152d5565b6130589190615316565b90508060035f82825461306b9190614acc565b925050819055506130ee836002015f9054906101000a900473ffffffffffffffffffffffffffffffffffffffff1682855f01546130a89190614d92565b7f000000000000000000000000000000000000000000000000000000000000000073ffffffffffffffffffffffffffffffffffffffff16612e969092919063ffffffff16565b600a5f846001015f9054906101000a900473ffffffffffffffffffffffffffffffffffffffff1673ffffffffffffffffffffffffffffffffffffffff1673ffffffffffffffffffffffffffffffffffffffff1681526020019081526020015f205f81819054906101000a900467ffffffffffffffff168092919061317190615346565b91906101000a81548167ffffffffffffffff021916908367ffffffffffffffff16021790555050600a5f846002015f9054906101000a900473ffffffffffffffffffffffffffffffffffffffff1673ffffffffffffffffffffffffffffffffffffffff1673ffffffffffffffffffffffffffffffffffffffff1681526020019081526020015f205f81819054906101000a900467ffffffffffffffff168092919061321b90615346565b91906101000a81548167ffffffffffffffff021916908367ffffffffffffffff1602179055505050505050565b5f60085f8481526020019081526020015f209050806005015f9054906101000a900460ff161561327857506137ea565b6001816005015f6101000a81548160ff0219169083151502179055505f60095f8581526020019081526020015f2090505f6127106132d8836001015f9054906101000a900473ffffffffffffffffffffffffffffffffffffffff16612a71565b835f01546132e691906152d5565b6132f09190615316565b905083156133235761331e8583845f01546127108561330f91906152d5565b6133199190615316565b613001565b6133e5565b600382600101601c6101000a81548160ff0219169083600481111561334b5761334a6141d0565b5b02179055508060035f8282546133619190614acc565b925050819055506133e4826001015f9054906101000a900473ffffffffffffffffffffffffffffffffffffffff1682845f015461339e9190614d92565b7f000000000000000000000000000000000000000000000000000000000000000073ffffffffffffffffffffffffffffffffffffffff16612e969092919063ffffffff16565b5b5f60646050836133f591906152d5565b6133ff9190615316565b90505f85613411578460040154613417565b84600301545b90505f5f90505b855f01805490508110156137ab575f865f0182815481106134425761344161527b565b5b905f5260205f20015f9054906101000a900473ffffffffffffffffffffffffffffffffffffffff169050866008015f8273ffffffffffffffffffffffffffffffffffffffff1673ffffffffffffffffffffffffffffffffffffffff1681526020019081526020015f205f9054906101000a900460ff166135175761351181600a68056bc75e2d631000006134d69190615316565b6040518060400160405280601181526020017f4661696c75726520746f2072657665616c000000000000000000000000000000815250613c73565b5061379e565b5f881515886009015f8473ffffffffffffffffffffffffffffffffffffffff1673ffffffffffffffffffffffffffffffffffffffff1681526020019081526020015f205f9054906101000a900460ff1615151490508015613745575f848661357f9190615316565b90506135cc83827f000000000000000000000000000000000000000000000000000000000000000073ffffffffffffffffffffffffffffffffffffffff16612e969092919063ffffffff16565b8273ffffffffffffffffffffffffffffffffffffffff167f0115739537d7e570bfaaeec14dc377fa1f0f9d94b5d7d949aa72c1f2e1fdd396826040516136129190614372565b60405180910390a25f7f000000000000000000000000000000000000000000000000000000000000000073ffffffffffffffffffffffffffffffffffffffff1663ed9dbf42856040518263ffffffff1660e01b815260040161367491906146c3565b602060405180830381865afa15801561368f573d5f5f3e3d5ffd5b505050506040513d601f19601f820116820180604052508101906136b39190614ec9565b90507f000000000000000000000000000000000000000000000000000000000000000073ffffffffffffffffffffffffffffffffffffffff16637947a9ae8260016040518363ffffffff1660e01b81526004016137119291906153ae565b5f604051808303815f87803b158015613728575f5ffd5b505af115801561373a573d5f5f3e3d5ffd5b50505050505061379b565b61379a82601468056bc75e2d6310000061375f9190615316565b6040518060400160405280601681526020017f566f74656420616761696e7374206d616a6f7269747900000000000000000000815250613c73565b5b50505b808060010191505061341e565b50867f6309d9f2499864a4f9d4ddb22f2b493afde8c215a1cd2e178647596cffe2efa4876040516137dc9190614e9c565b60405180910390a250505050505b5050565b5f5f5f9054906101000a900473ffffffffffffffffffffffffffffffffffffffff169050815f5f6101000a81548173ffffffffffffffffffffffffffffffffffffffff021916908373ffffffffffffffffffffffffffffffffffffffff1602179055508173ffffffffffffffffffffffffffffffffffffffff168173ffffffffffffffffffffffffffffffffffffffff167f8be0079c531659141344cd1fd0a4f28419497f9722a3daafe3b4186f6b6457e060405160405180910390a35050565b60605f600367ffffffffffffffff8111156138cd576138cc614aff565b5b6040519080825280602002602001820160405280156138fb5781602001602082028036833780820191505090505b5090505f5f90505f5f90505b600580549050811015613972576139586005828154811061392b5761392a61527b565b5b905f5260205f20015f9054906101000a900473ffffffffffffffffffffffffffffffffffffffff16613de3565b826139639190614acc565b91508080600101915050613907565b505f428583604051602001613989939291906153f5565b604051602081830303815290604052805190602001205f1c90505f5f90505b6003811080156139bc575060058054905081105b15613b1a575f8383836040516020016139d6929190615431565b604051602081830303815290604052805190602001205f1c6139f8919061545c565b90505f5f90505f5f90505b600580549050811015613b0457613a5460058281548110613a2757613a2661527b565b5b905f5260205f20015f9054906101000a900473ffffffffffffffffffffffffffffffffffffffff16613de3565b82613a5f9190614acc565b915082821115613af75760058181548110613a7d57613a7c61527b565b5b905f5260205f20015f9054906101000a900473ffffffffffffffffffffffffffffffffffffffff16878581518110613ab857613ab761527b565b5b602002602001019073ffffffffffffffffffffffffffffffffffffffff16908173ffffffffffffffffffffffffffffffffffffffff1681525050613b04565b8080600101915050613a03565b5050508080613b1290614e55565b9150506139a8565b50829350505050919050565b5f33905090565b613b35613f8e565b15613b6c576040517f3ee5aeb500000000000000000000000000000000000000000000000000000000815260040160405180910390fd5b565b5f7f9b779b17422d0df92223018b32b4d1fa46e071723d6817e2486d003becc55f005f1b905090565b5f819050919050565b5f5f6323b872dd60e01b9050604051815f525f1960601c87166004525f1960601c86166024528460445260205f60645f5f8c5af1925060015f51148316613bfe578383151615613bf2573d5f823e3d81fd5b5f883b113d1516831692505b806040525f606052505095945050505050565b5f5f63a9059cbb60e01b9050604051815f525f1960601c86166004528460245260205f60445f5f8b5af1925060015f51148316613c65578383151615613c59573d5f823e3d81fd5b5f873b113d1516831692505b806040525050949350505050565b5f60075f815480929190613c8690614e55565b91905055905060405180608001604052808573ffffffffffffffffffffffffffffffffffffffff1681526020018481526020016276a70042613cc89190614acc565b67ffffffffffffffff1681526020015f151581525060065f8381526020019081526020015f205f820151815f015f6101000a81548173ffffffffffffffffffffffffffffffffffffffff021916908373ffffffffffffffffffffffffffffffffffffffff160217905550602082015181600101556040820151816002015f6101000a81548167ffffffffffffffff021916908367ffffffffffffffff16021790555060608201518160020160086101000a81548160ff0219169083151502179055509050508373ffffffffffffffffffffffffffffffffffffffff167fed9e5190e975aa4403c276297e605b40d5a99683c8d2482166c8efbd1a89265f8484604051613dd592919061548c565b60405180910390a250505050565b5f5f7f000000000000000000000000000000000000000000000000000000000000000073ffffffffffffffffffffffffffffffffffffffff1663ed9dbf42846040518263ffffffff1660e01b8152600401613e3e91906146c3565b602060405180830381865afa158015613e59573d5f5f3e3d5ffd5b505050506040513d601f19601f82011682018060405250810190613e7d9190614ec9565b90505f7f000000000000000000000000000000000000000000000000000000000000000073ffffffffffffffffffffffffffffffffffffffff1663ba6a3dd0836040518263ffffffff1660e01b8152600401613ed99190614ef4565b5f60405180830381865afa158015613ef3573d5f5f3e3d5ffd5b505050506040513d5f823e3d601f19601f82011682018060405250810190613f1b91906151b7565b9050670de0b6b3a764000060045f8673ffffffffffffffffffffffffffffffffffffffff1673ffffffffffffffffffffffffffffffffffffffff1681526020019081526020015f205f01548260a0015163ffffffff16613f7b91906152d5565b613f859190615316565b92505050919050565b5f6002613fa1613f9c613b6e565b613b97565b5f015414905090565b6040518061012001604052805f81526020015f73ffffffffffffffffffffffffffffffffffffffff1681526020015f67ffffffffffffffff1681526020015f6004811115613ffb57613ffa6141d0565b5b81526020015f73ffffffffffffffffffffffffffffffffffffffff1681526020015f67ffffffffffffffff1681526020015f63ffffffff168152602001606081526020015f81525090565b828054828255905f5260205f209081019282156140bc579160200282015b828111156140bb578251825f6101000a81548173ffffffffffffffffffffffffffffffffffffffff021916908373ffffffffffffffffffffffffffffffffffffffff16021790555091602001919060010190614064565b5b5090506140c991906140cd565b5090565b5b808211156140e4575f815f9055506001016140ce565b5090565b5f604051905090565b5f5ffd5b5f5ffd5b5f819050919050565b61410b816140f9565b8114614115575f5ffd5b50565b5f8135905061412681614102565b92915050565b5f60208284031215614141576141406140f1565b5b5f61414e84828501614118565b91505092915050565b5f819050919050565b61416981614157565b82525050565b5f73ffffffffffffffffffffffffffffffffffffffff82169050919050565b5f6141988261416f565b9050919050565b6141a88161418e565b82525050565b5f67ffffffffffffffff82169050919050565b6141ca816141ae565b82525050565b7f4e487b71000000000000000000000000000000000000000000000000000000005f52602160045260245ffd5b6005811061420e5761420d6141d0565b5b50565b5f81905061421e826141fd565b919050565b5f61422d82614211565b9050919050565b61423d81614223565b82525050565b5f63ffffffff82169050919050565b61425b81614243565b82525050565b5f81519050919050565b5f82825260208201905092915050565b8281835e5f83830152505050565b5f601f19601f8301169050919050565b5f6142a382614261565b6142ad818561426b565b93506142bd81856020860161427b565b6142c681614289565b840191505092915050565b6142da816140f9565b82525050565b5f610120820190506142f45f83018c614160565b614301602083018b61419f565b61430e604083018a6141c1565b61431b6060830189614234565b614328608083018861419f565b61433560a08301876141c1565b61434260c0830186614252565b81810360e08301526143548185614299565b90506143646101008301846142d1565b9a9950505050505050505050565b5f6020820190506143855f830184614160565b92915050565b5f8115159050919050565b61439f8161438b565b82525050565b5f60c0820190506143b85f830189614160565b6143c56020830188614160565b6143d26040830187614160565b6143df6060830186614160565b6143ec6080830185614396565b6143f960a0830184614160565b979650505050505050565b61440d81614157565b8114614417575f5ffd5b50565b5f8135905061442881614404565b92915050565b5f60208284031215614443576144426140f1565b5b5f6144508482850161441a565b91505092915050565b5f81519050919050565b5f82825260208201905092915050565b5f819050602082019050919050565b61448b8161418e565b82525050565b5f61449c8383614482565b60208301905092915050565b5f602082019050919050565b5f6144be82614459565b6144c88185614463565b93506144d383614473565b805f5b838110156145035781516144ea8882614491565b97506144f5836144a8565b9250506001810190506144d6565b5085935050505092915050565b5f60c0820190508181035f83015261452881896144b4565b90506145376020830188614160565b6145446040830187614160565b6145516060830186614160565b61455e6080830185614160565b61456b60a0830184614396565b979650505050505050565b61457f8161418e565b8114614589575f5ffd5b50565b5f8135905061459a81614576565b92915050565b5f5ffd5b5f5ffd5b5f5ffd5b5f5f83601f8401126145c1576145c06145a0565b5b8235905067ffffffffffffffff8111156145de576145dd6145a4565b5b6020830191508360018202830111156145fa576145f96145a8565b5b9250929050565b5f5f5f5f5f6080868803121561461a576146196140f1565b5b5f61462788828901614118565b95505060206146388882890161458c565b94505060406146498882890161441a565b935050606086013567ffffffffffffffff81111561466a576146696140f5565b5b614676888289016145ac565b92509250509295509295909350565b5f5f6040838503121561469b5761469a6140f1565b5b5f6146a885828601614118565b92505060206146b985828601614118565b9150509250929050565b5f6020820190506146d65f83018461419f565b92915050565b5f6080820190506146ef5f83018761419f565b6146fc6020830186614160565b61470960408301856141c1565b6147166060830184614396565b95945050505050565b6147288161438b565b8114614732575f5ffd5b50565b5f813590506147438161471f565b92915050565b5f5f5f606084860312156147605761475f6140f1565b5b5f61476d86828701614118565b935050602061477e86828701614735565b925050604061478f86828701614118565b9150509250925092565b5f819050919050565b5f6147bc6147b76147b28461416f565b614799565b61416f565b9050919050565b5f6147cd826147a2565b9050919050565b5f6147de826147c3565b9050919050565b6147ee816147d4565b82525050565b5f6020820190506148075f8301846147e5565b92915050565b5f60208284031215614822576148216140f1565b5b5f61482f8482850161458c565b91505092915050565b5f60208201905061484b5f8301846141c1565b92915050565b61485a81614157565b82525050565b614869816141ae565b82525050565b61487881614223565b82525050565b61488781614243565b82525050565b5f82825260208201905092915050565b5f6148a782614261565b6148b1818561488d565b93506148c181856020860161427b565b6148ca81614289565b840191505092915050565b6148de816140f9565b82525050565b5f61012083015f8301516148fa5f860182614851565b50602083015161490d6020860182614482565b5060408301516149206040860182614860565b506060830151614933606086018261486f565b5060808301516149466080860182614482565b5060a083015161495960a0860182614860565b5060c083015161496c60c086018261487e565b5060e083015184820360e0860152614984828261489d565b91505061010083015161499b6101008601826148d5565b508091505092915050565b5f6020820190508181035f8301526149be81846148e4565b905092915050565b5f6080820190506149d95f830187614160565b6149e660208301866141c1565b6149f360408301856141c1565b614a006060830184614396565b95945050505050565b5f614a13826147c3565b9050919050565b614a2381614a09565b82525050565b5f602082019050614a3c5f830184614a1a565b92915050565b7f4e487b71000000000000000000000000000000000000000000000000000000005f52602260045260245ffd5b5f6002820490506001821680614a8657607f821691505b602082108103614a9957614a98614a42565b5b50919050565b7f4e487b71000000000000000000000000000000000000000000000000000000005f52601160045260245ffd5b5f614ad682614157565b9150614ae183614157565b9250828201905080821115614af957614af8614a9f565b5b92915050565b7f4e487b71000000000000000000000000000000000000000000000000000000005f52604160045260245ffd5b5f819050815f5260205f209050919050565b5f6020601f8301049050919050565b5f82821b905092915050565b5f60088302614b887fffffffffffffffffffffffffffffffffffffffffffffffffffffffffffffffff82614b4d565b614b928683614b4d565b95508019841693508086168417925050509392505050565b5f614bc4614bbf614bba84614157565b614799565b614157565b9050919050565b5f819050919050565b614bdd83614baa565b614bf1614be982614bcb565b848454614b59565b825550505050565b5f5f905090565b614c08614bf9565b614c13818484614bd4565b505050565b5b81811015614c3657614c2b5f82614c00565b600181019050614c19565b5050565b601f821115614c7b57614c4c81614b2c565b614c5584614b3e565b81016020851015614c64578190505b614c78614c7085614b3e565b830182614c18565b50505b505050565b5f82821c905092915050565b5f614c9b5f1984600802614c80565b1980831691505092915050565b5f614cb38383614c8c565b9150826002028217905092915050565b614ccc82614261565b67ffffffffffffffff811115614ce557614ce4614aff565b5b614cef8254614a6f565b614cfa828285614c3a565b5f60209050601f831160018114614d2b575f8415614d19578287015190505b614d238582614ca8565b865550614d8a565b601f198416614d3986614b2c565b5f5b82811015614d6057848901518255600182019150602085019450602081019050614d3b565b86831015614d7d5784890151614d79601f891682614c8c565b8355505b6001600288020188555050505b505050505050565b5f614d9c82614157565b9150614da783614157565b9250828203905081811115614dbf57614dbe614a9f565b5b92915050565b5f8160f81b9050919050565b5f614ddb82614dc5565b9050919050565b5f614dec82614dd1565b9050919050565b614e04614dff8261438b565b614de2565b82525050565b5f819050919050565b614e24614e1f826140f9565b614e0a565b82525050565b5f614e358285614df3565b600182019150614e458284614e13565b6020820191508190509392505050565b5f614e5f82614157565b91507fffffffffffffffffffffffffffffffffffffffffffffffffffffffffffffffff8203614e9157614e90614a9f565b5b600182019050919050565b5f602082019050614eaf5f830184614396565b92915050565b5f81519050614ec381614102565b92915050565b5f60208284031215614ede57614edd6140f1565b5b5f614eeb84828501614eb5565b91505092915050565b5f602082019050614f075f8301846142d1565b92915050565b5f5ffd5b614f1a82614289565b810181811067ffffffffffffffff82111715614f3957614f38614aff565b5b80604052505050565b5f614f4b6140e8565b9050614f578282614f11565b919050565b5f5ffd5b5f5ffd5b5f67ffffffffffffffff821115614f7e57614f7d614aff565b5b614f8782614289565b9050602081019050919050565b5f614fa6614fa184614f64565b614f42565b905082815260208101848484011115614fc257614fc1614f60565b5b614fcd84828561427b565b509392505050565b5f82601f830112614fe957614fe86145a0565b5b8151614ff9848260208601614f94565b91505092915050565b5f8151905061501081614576565b92915050565b61501f816141ae565b8114615029575f5ffd5b50565b5f8151905061503a81615016565b92915050565b61504981614243565b8114615053575f5ffd5b50565b5f8151905061506481615040565b92915050565b5f8151905061507881614404565b92915050565b5f8151905061508c8161471f565b92915050565b5f61016082840312156150a8576150a7614f0d565b5b6150b3610160614f42565b90505f6150c284828501614eb5565b5f8301525060206150d584828501614eb5565b602083015250604082015167ffffffffffffffff8111156150f9576150f8614f5c565b5b61510584828501614fd5565b604083015250606061511984828501615002565b606083015250608061512d8482850161502c565b60808301525060a061514184828501615056565b60a08301525060c06151558482850161506a565b60c08301525060e06151698482850161507e565b60e08301525061010061517e8482850161507e565b610100830152506101206151948482850161507e565b610120830152506101406151aa8482850161507e565b6101408301525092915050565b5f602082840312156151cc576151cb6140f1565b5b5f82015167ffffffffffffffff8111156151e9576151e86140f5565b5b6151f584828501615092565b91505092915050565b5f6020820190508181035f83015261521681846144b4565b905092915050565b7f4e487b71000000000000000000000000000000000000000000000000000000005f52601260045260245ffd5b5f61525582614243565b915061526083614243565b9250826152705761526f61521e565b5b828204905092915050565b7f4e487b71000000000000000000000000000000000000000000000000000000005f52603260045260245ffd5b7f4e487b71000000000000000000000000000000000000000000000000000000005f52603160045260245ffd5b5f6152df82614157565b91506152ea83614157565b92508282026152f881614157565b9150828204841483151761530f5761530e614a9f565b5b5092915050565b5f61532082614157565b915061532b83614157565b92508261533b5761533a61521e565b5b828204905092915050565b5f615350826141ae565b915067ffffffffffffffff820361536a57615369614a9f565b5b600182019050919050565b5f819050919050565b5f61539861539361538e84615375565b614799565b614243565b9050919050565b6153a88161537e565b82525050565b5f6040820190506153c15f8301856142d1565b6153ce602083018461539f565b9392505050565b5f819050919050565b6153ef6153ea82614157565b6153d5565b82525050565b5f61540082866153de565b6020820191506154108285614e13565b60208201915061542082846153de565b602082019150819050949350505050565b5f61543c82856153de565b60208201915061544c82846153de565b6020820191508190509392505050565b5f61546682614157565b915061547183614157565b9250826154815761548061521e565b5b828206905092915050565b5f60408201905061549f5f830185614160565b81810360208301526154b18184614299565b9050939250505056fea2646970667358221220f444afef5e8720bff7c691b7260b1153d2467449232cfea733738d85b88b852e64736f6c634300081e0033","linkReferences":{}},"methodIdentifiers":{"AUTO_RELEASE_DELAY()":"09499aa6","DISPUTE_WINDOW()":"f585dc57","MIN_RESOLVER_STAKE()":"712255ec","PLATFORM_FEE_BPS()":"539aa77f","SLASHING_DELAY()":"b469ab68","STAKE_LOCK_DURATION()":"73d6c8e5","accumulatedFees()":"587f5ed7","activeResolvers(uint256)":"9f3e1819","calculateDisputeFee(address)":"f9fc3091","commitVote(bytes32,bytes32)":"3bbd2235","completedTrades(address)":"8a6e47ba","confirmRelease(bytes32)":"3edd9f35","daiToken()":"be22f546","disputes(bytes32)":"11be1997","executeSlash(uint256)":"69ae9af8","feeRecipient()":"46904840","fundTrade(bytes32,address,uint256,string)":"144747ab","getDispute(bytes32)":"136ba6aa","getTrade(bytes32)":"a3b13799","identityContract()":"67031bae","nextSlashId()":"a03596cb","openDispute(bytes32)":"f08ef6cb","owner()":"8da5cb5b","pendingSlashes(uint256)":"49750867","platformFeeBps()":"22dcd13e","renounceOwnership()":"715018a6","resolvers(address)":"b93793e9","revealVote(bytes32,bool,bytes32)":"58fad091","setFeeRecipient(address)":"e74b981b","setPlatformFee(uint256)":"12e8e2c3","stake(uint256)":"a694fc3a","trades(bytes32)":"00162420","transferOwnership(address)":"f2fde38b","unstake(uint256)":"2e17de78","vetoSlash(uint256)":"7ac0931a","withdrawFees()":"476343ee"},"id":2}